{
  "address": "0x6D2C102938f375F896Db0f931f6960f016390e41",
  "abi": [
    {
      "inputs": [
        {
          "internalType": "address",
          "name": "__owner",
          "type": "address"
        }
      ],
      "stateMutability": "nonpayable",
      "type": "constructor"
    },
    {
      "anonymous": false,
      "inputs": [
        {
          "indexed": true,
          "internalType": "address",
          "name": "owner",
          "type": "address"
        },
        {
          "indexed": true,
          "internalType": "address",
          "name": "spender",
          "type": "address"
        },
        {
          "indexed": false,
          "internalType": "uint256",
          "name": "value",
          "type": "uint256"
        }
      ],
      "name": "Approval",
      "type": "event"
    },
    {
      "anonymous": false,
      "inputs": [
        {
          "indexed": true,
          "internalType": "address",
          "name": "previousOwner",
          "type": "address"
        },
        {
          "indexed": true,
          "internalType": "address",
          "name": "newOwner",
          "type": "address"
        }
      ],
      "name": "OwnershipTransferred",
      "type": "event"
    },
    {
      "anonymous": false,
      "inputs": [
        {
          "indexed": true,
          "internalType": "address",
          "name": "from",
          "type": "address"
        },
        {
          "indexed": true,
          "internalType": "address",
          "name": "to",
          "type": "address"
        },
        {
          "indexed": false,
          "internalType": "uint256",
          "name": "value",
          "type": "uint256"
        }
      ],
      "name": "Transfer",
      "type": "event"
    },
    {
      "anonymous": false,
      "inputs": [
        {
          "indexed": false,
          "internalType": "uint256",
          "name": "_eventgameid",
          "type": "uint256"
        },
        {
          "indexed": false,
          "internalType": "address payable",
          "name": "_eventtheplayeraddress",
          "type": "address"
        },
        {
          "indexed": false,
          "internalType": "string",
          "name": "_eventchoicemade",
          "type": "string"
        }
      ],
      "name": "eventplaygame",
      "type": "event"
    },
    {
      "inputs": [
        {
          "internalType": "uint256",
          "name": "_gameid",
          "type": "uint256"
        }
      ],
      "name": "_checkgameregistered",
      "outputs": [
        {
          "internalType": "bool",
          "name": "",
          "type": "bool"
        }
      ],
      "stateMutability": "nonpayable",
      "type": "function"
    },
    {
      "inputs": [
        {
          "internalType": "uint256",
          "name": "_gameid",
          "type": "uint256"
        },
        {
          "internalType": "address",
          "name": "_playeraddress",
          "type": "address"
        }
      ],
      "name": "_checkplayeringame",
      "outputs": [
        {
          "internalType": "bool",
          "name": "",
          "type": "bool"
        }
      ],
      "stateMutability": "nonpayable",
      "type": "function"
    },
    {
      "inputs": [
        {
          "internalType": "address payable",
          "name": "_playeraddress",
          "type": "address"
        }
      ],
      "name": "_checkplayerregistered",
      "outputs": [
        {
          "internalType": "bool",
          "name": "",
          "type": "bool"
        }
      ],
      "stateMutability": "nonpayable",
      "type": "function"
    },
    {
      "inputs": [
        {
          "internalType": "uint256",
          "name": "",
          "type": "uint256"
        }
      ],
      "name": "_games",
      "outputs": [
        {
          "internalType": "uint256",
          "name": "gameid",
          "type": "uint256"
        },
        {
          "internalType": "uint256",
          "name": "gamecount",
          "type": "uint256"
        }
      ],
      "stateMutability": "view",
      "type": "function"
    },
    {
      "inputs": [],
      "name": "_owner",
      "outputs": [
        {
          "internalType": "address",
          "name": "",
          "type": "address"
        }
      ],
      "stateMutability": "view",
      "type": "function"
    },
    {
      "inputs": [
        {
          "internalType": "address",
          "name": "",
          "type": "address"
        }
      ],
      "name": "_playerstore",
      "outputs": [
        {
          "internalType": "address payable",
          "name": "playeraddress",
          "type": "address"
        },
        {
          "internalType": "string",
          "name": "playername",
          "type": "string"
        },
        {
          "internalType": "uint256",
          "name": "playerscore",
          "type": "uint256"
        },
        {
          "internalType": "uint256",
          "name": "playerbalance",
          "type": "uint256"
        }
      ],
      "stateMutability": "view",
      "type": "function"
    },
    {
      "inputs": [
        {
          "internalType": "uint256",
          "name": "",
          "type": "uint256"
        }
      ],
      "name": "_playinggames",
      "outputs": [
        {
          "internalType": "uint256",
          "name": "playinggameid",
          "type": "uint256"
        },
        {
          "internalType": "address payable",
          "name": "playerininaddress",
          "type": "address"
        },
        {
          "internalType": "bool",
          "name": "gameover",
          "type": "bool"
        },
        {
          "internalType": "uint256",
          "name": "gamescore",
          "type": "uint256"
        },
        {
          "internalType": "uint256",
          "name": "playerscount",
          "type": "uint256"
        },
        {
          "internalType": "uint256",
          "name": "duration",
          "type": "uint256"
        }
      ],
      "stateMutability": "view",
      "type": "function"
    },
    {
      "inputs": [
        {
          "internalType": "address",
          "name": "owner",
          "type": "address"
        },
        {
          "internalType": "address",
          "name": "spender",
          "type": "address"
        }
      ],
      "name": "allowance",
      "outputs": [
        {
          "internalType": "uint256",
          "name": "",
          "type": "uint256"
        }
      ],
      "stateMutability": "view",
      "type": "function"
    },
    {
      "inputs": [
        {
          "internalType": "address",
          "name": "spender",
          "type": "address"
        },
        {
          "internalType": "uint256",
          "name": "amount",
          "type": "uint256"
        }
      ],
      "name": "approve",
      "outputs": [
        {
          "internalType": "bool",
          "name": "",
          "type": "bool"
        }
      ],
      "stateMutability": "nonpayable",
      "type": "function"
    },
    {
      "inputs": [
        {
          "internalType": "address",
          "name": "account",
          "type": "address"
        }
      ],
      "name": "balanceOf",
      "outputs": [
        {
          "internalType": "uint256",
          "name": "",
          "type": "uint256"
        }
      ],
      "stateMutability": "view",
      "type": "function"
    },
    {
      "inputs": [
        {
          "internalType": "uint256",
          "name": "game_id",
          "type": "uint256"
        },
        {
          "internalType": "address payable",
          "name": "_playeraddress",
          "type": "address"
        }
      ],
      "name": "choosegametostake",
      "outputs": [
        {
          "internalType": "uint256",
          "name": "",
          "type": "uint256"
        }
      ],
      "stateMutability": "nonpayable",
      "type": "function"
    },
    {
      "inputs": [],
      "name": "decimals",
      "outputs": [
        {
          "internalType": "uint8",
          "name": "",
          "type": "uint8"
        }
      ],
      "stateMutability": "view",
      "type": "function"
    },
    {
      "inputs": [
        {
          "internalType": "address",
          "name": "spender",
          "type": "address"
        },
        {
          "internalType": "uint256",
          "name": "subtractedValue",
          "type": "uint256"
        }
      ],
      "name": "decreaseAllowance",
      "outputs": [
        {
          "internalType": "bool",
          "name": "",
          "type": "bool"
        }
      ],
      "stateMutability": "nonpayable",
      "type": "function"
    },
    {
      "inputs": [
        {
          "internalType": "uint256",
          "name": "",
          "type": "uint256"
        }
      ],
      "name": "gameinplay",
      "outputs": [
        {
          "internalType": "uint256",
          "name": "playinggameid",
          "type": "uint256"
        },
        {
          "internalType": "address payable",
          "name": "playerininaddress",
          "type": "address"
        },
        {
          "internalType": "bool",
          "name": "gameover",
          "type": "bool"
        },
        {
          "internalType": "uint256",
          "name": "gamescore",
          "type": "uint256"
        },
        {
          "internalType": "uint256",
          "name": "playerscount",
          "type": "uint256"
        },
        {
          "internalType": "uint256",
          "name": "duration",
          "type": "uint256"
        }
      ],
      "stateMutability": "view",
      "type": "function"
    },
    {
      "inputs": [
        {
          "internalType": "uint256",
          "name": "",
          "type": "uint256"
        }
      ],
      "name": "gamesregistered",
      "outputs": [
        {
          "internalType": "uint256",
          "name": "gameid",
          "type": "uint256"
        },
        {
          "internalType": "uint256",
          "name": "gamecount",
          "type": "uint256"
        }
      ],
      "stateMutability": "view",
      "type": "function"
    },
    {
      "inputs": [
        {
          "internalType": "address",
          "name": "spender",
          "type": "address"
        },
        {
          "internalType": "uint256",
          "name": "addedValue",
          "type": "uint256"
        }
      ],
      "name": "increaseAllowance",
      "outputs": [
        {
          "internalType": "bool",
          "name": "",
          "type": "bool"
        }
      ],
      "stateMutability": "nonpayable",
      "type": "function"
    },
    {
      "inputs": [],
      "name": "name",
      "outputs": [
        {
          "internalType": "string",
          "name": "",
          "type": "string"
        }
      ],
      "stateMutability": "view",
      "type": "function"
    },
    {
      "inputs": [],
      "name": "owner",
      "outputs": [
        {
          "internalType": "address",
          "name": "",
          "type": "address"
        }
      ],
      "stateMutability": "view",
      "type": "function"
    },
    {
      "inputs": [
        {
          "internalType": "address payable",
          "name": "_playeraddress",
          "type": "address"
        },
        {
          "internalType": "uint256",
          "name": "amount",
          "type": "uint256"
        }
      ],
      "name": "payfee",
      "outputs": [
        {
          "internalType": "bool",
          "name": "",
          "type": "bool"
        }
      ],
      "stateMutability": "payable",
      "type": "function"
    },
    {
      "inputs": [
        {
          "internalType": "uint256",
          "name": "",
          "type": "uint256"
        }
      ],
      "name": "playersregistered",
      "outputs": [
        {
          "internalType": "address payable",
          "name": "playeraddress",
          "type": "address"
        },
        {
          "internalType": "string",
          "name": "playername",
          "type": "string"
        },
        {
          "internalType": "uint256",
          "name": "playerscore",
          "type": "uint256"
        },
        {
          "internalType": "uint256",
          "name": "playerbalance",
          "type": "uint256"
        }
      ],
      "stateMutability": "view",
      "type": "function"
    },
    {
      "inputs": [],
      "name": "prev_gamestaked",
      "outputs": [
        {
          "internalType": "uint256",
          "name": "",
          "type": "uint256"
        }
      ],
      "stateMutability": "view",
      "type": "function"
    },
    {
      "inputs": [
        {
          "internalType": "uint256",
          "name": "_gameid",
          "type": "uint256"
        }
      ],
      "name": "registergame",
      "outputs": [
        {
          "internalType": "uint256",
          "name": "",
          "type": "uint256"
        }
      ],
      "stateMutability": "nonpayable",
      "type": "function"
    },
    {
      "inputs": [
        {
          "internalType": "string",
          "name": "_playername",
          "type": "string"
        },
        {
          "internalType": "address payable",
          "name": "_playeraddress",
          "type": "address"
        }
      ],
      "name": "registerplayername",
      "outputs": [
        {
          "internalType": "string",
          "name": "",
          "type": "string"
        },
        {
          "internalType": "address",
          "name": "",
          "type": "address"
        }
      ],
      "stateMutability": "nonpayable",
      "type": "function"
    },
    {
      "inputs": [],
      "name": "renounceOwnership",
      "outputs": [],
      "stateMutability": "nonpayable",
      "type": "function"
    },
    {
      "inputs": [],
      "name": "selectPaper",
      "outputs": [
        {
          "internalType": "bool",
          "name": "",
          "type": "bool"
        }
      ],
      "stateMutability": "nonpayable",
      "type": "function"
    },
    {
      "inputs": [],
      "name": "selectRock",
      "outputs": [
        {
          "internalType": "bool",
          "name": "",
          "type": "bool"
        }
      ],
      "stateMutability": "nonpayable",
      "type": "function"
    },
    {
      "inputs": [],
      "name": "selectScissors",
      "outputs": [
        {
          "internalType": "bool",
          "name": "",
          "type": "bool"
        }
      ],
      "stateMutability": "nonpayable",
      "type": "function"
    },
    {
      "inputs": [],
      "name": "stakeprevwinnings",
      "outputs": [
        {
          "internalType": "bool",
          "name": "",
          "type": "bool"
        }
      ],
      "stateMutability": "nonpayable",
      "type": "function"
    },
    {
      "inputs": [],
      "name": "symbol",
      "outputs": [
        {
          "internalType": "string",
          "name": "",
          "type": "string"
        }
      ],
      "stateMutability": "view",
      "type": "function"
    },
    {
      "inputs": [],
      "name": "totalSupply",
      "outputs": [
        {
          "internalType": "uint256",
          "name": "",
          "type": "uint256"
        }
      ],
      "stateMutability": "view",
      "type": "function"
    },
    {
      "inputs": [],
      "name": "totalsupplytokens",
      "outputs": [
        {
          "internalType": "uint256",
          "name": "",
          "type": "uint256"
        }
      ],
      "stateMutability": "view",
      "type": "function"
    },
    {
      "inputs": [
        {
          "internalType": "address",
          "name": "recipient",
          "type": "address"
        },
        {
          "internalType": "uint256",
          "name": "amount",
          "type": "uint256"
        }
      ],
      "name": "transfer",
      "outputs": [
        {
          "internalType": "bool",
          "name": "",
          "type": "bool"
        }
      ],
      "stateMutability": "nonpayable",
      "type": "function"
    },
    {
      "inputs": [
        {
          "internalType": "address",
          "name": "sender",
          "type": "address"
        },
        {
          "internalType": "address",
          "name": "recipient",
          "type": "address"
        },
        {
          "internalType": "uint256",
          "name": "amount",
          "type": "uint256"
        }
      ],
      "name": "transferFrom",
      "outputs": [
        {
          "internalType": "bool",
          "name": "",
          "type": "bool"
        }
      ],
      "stateMutability": "nonpayable",
      "type": "function"
    },
    {
      "inputs": [
        {
          "internalType": "address",
          "name": "newOwner",
          "type": "address"
        }
      ],
      "name": "transferOwnership",
      "outputs": [],
      "stateMutability": "nonpayable",
      "type": "function"
    }
  ],
  "transactionHash": "0x3f3f98012ba2b30d91af8a2e48183496b37d0ee07c2a274262900e79a2ac3c24",
  "args": [
    "0x06Da25591CdF58758C4b3aBbFf18B092e4380B65"
  ],
  "solcInputHash": "ca5415e69fe8f46bfdb2c4e064e7ccf5",
  "bytecode": "0x60806040526000600660006101000a81548160ff0219169083151502179055506000600660016101000a81548160ff0219169083151502179055506000600660026101000a81548160ff0219169083151502179055506000600860006101000a81548160ff0219169083151502179055506040518060400160405280600981526020017f525053544f4b454e530000000000000000000000000000000000000000000000815250600a9080519060200190620000bd92919062000403565b506040518060400160405280600381526020017f5250530000000000000000000000000000000000000000000000000000000000815250600b90805190602001906200010b92919062000403565b506000600d556000600e556000600f556064601055620f42406011553480156200013457600080fd5b50604051620038af380380620038af83398181016040528101906200015a9190620004ca565b600a805462000169906200052a565b80601f016020809104026020016040519081016040528092919081815260200182805462000197906200052a565b8015620001e85780601f10620001bc57610100808354040283529160200191620001e8565b820191906000526020600020905b815481529060010190602001808311620001ca57829003601f168201915b5050505050600b8054620001fc906200052a565b80601f01602080910402602001604051908101604052809291908181526020018280546200022a906200052a565b80156200027b5780601f106200024f576101008083540402835291602001916200027b565b820191906000526020600020905b8154815290600101906020018083116200025d57829003601f168201915b5050505050620002a0620002946200032d60201b60201c565b6200033560201b60201c565b8160049080519060200190620002b892919062000403565b508060059080519060200190620002d192919062000403565b50505080600c60006101000a81548173ffffffffffffffffffffffffffffffffffffffff021916908373ffffffffffffffffffffffffffffffffffffffff16021790555062000325620003f960201b60201c565b5050620005a9565b600033905090565b60008060009054906101000a900473ffffffffffffffffffffffffffffffffffffffff169050816000806101000a81548173ffffffffffffffffffffffffffffffffffffffff021916908373ffffffffffffffffffffffffffffffffffffffff1602179055508173ffffffffffffffffffffffffffffffffffffffff168173ffffffffffffffffffffffffffffffffffffffff167f8be0079c531659141344cd1fd0a4f28419497f9722a3daafe3b4186f6b6457e060405160405180910390a35050565b6000601154905090565b82805462000411906200052a565b90600052602060002090601f01602090048101928262000435576000855562000481565b82601f106200045057805160ff191683800117855562000481565b8280016001018555821562000481579182015b828111156200048057825182559160200191906001019062000463565b5b50905062000490919062000494565b5090565b5b80821115620004af57600081600090555060010162000495565b5090565b600081519050620004c4816200058f565b92915050565b600060208284031215620004dd57600080fd5b6000620004ed84828501620004b3565b91505092915050565b600062000503826200050a565b9050919050565b600073ffffffffffffffffffffffffffffffffffffffff82169050919050565b600060028204905060018216806200054357607f821691505b602082108114156200055a576200055962000560565b5b50919050565b7f4e487b7100000000000000000000000000000000000000000000000000000000600052602260045260246000fd5b6200059a81620004f6565b8114620005a657600080fd5b50565b6132f680620005b96000396000f3fe6080604052600436106101f95760003560e01c80638e0c62e31161010d578063b2bdfa7b116100a0578063d6452b1f1161006f578063d6452b1f14610800578063da92cae41461083d578063dd62ed3e1461087b578063f2fde38b146108b8578063f67ce9f3146108e1576101f9565b8063b2bdfa7b14610728578063c6de1b4b14610753578063c93aef0614610793578063d5d2441a146107d5576101f9565b8063a33a48d6116100dc578063a33a48d614610646578063a457c2d714610671578063a9059cbb146106ae578063a9d5642a146106eb576101f9565b80638e0c62e31461057057806391af152c146105a057806395d89b41146105dd578063a0f5c27514610608576101f9565b806340ba937b116101905780636d1da1911161015f5780636d1da1911461048657806370a08231146104b1578063715018a6146104ee5780638ac3c014146105055780638da5cb5b14610545576101f9565b806340ba937b146103a357806341eb8b8b146103e057806355cf32511461041e57806357e03abb14610449576101f9565b806323b872dd116101cc57806323b872dd146102d3578063313ce567146103105780633933de8a1461033b5780633950935114610366576101f9565b806306fdde03146101fe578063095ea7b314610229578063177dc57a1461026657806318160ddd146102a8575b600080fd5b34801561020a57600080fd5b5061021361090c565b6040516102209190612a04565b60405180910390f35b34801561023557600080fd5b50610250600480360381019061024b91906125f1565b61099e565b60405161025d91906129e9565b60405180910390f35b34801561027257600080fd5b5061028d60048036038101906102889190612681565b6109bc565b60405161029f96959493929190612bf1565b60405180910390f35b3480156102b457600080fd5b506102bd610a35565b6040516102ca9190612bd6565b60405180910390f35b3480156102df57600080fd5b506102fa60048036038101906102f591906125a2565b610a3f565b60405161030791906129e9565b60405180910390f35b34801561031c57600080fd5b50610325610b37565b6040516103329190612c7b565b60405180910390f35b34801561034757600080fd5b50610350610b40565b60405161035d91906129e9565b60405180910390f35b34801561037257600080fd5b5061038d600480360381019061038891906125f1565b610bba565b60405161039a91906129e9565b60405180910390f35b3480156103af57600080fd5b506103ca60048036038101906103c59190612681565b610c66565b6040516103d79190612bd6565b60405180910390f35b3480156103ec57600080fd5b5061040760048036038101906104029190612681565b610df8565b604051610415929190612c52565b60405180910390f35b34801561042a57600080fd5b50610433610e1c565b6040516104409190612bd6565b60405180910390f35b34801561045557600080fd5b50610470600480360381019061046b91906126aa565b610e22565b60405161047d91906129e9565b60405180910390f35b34801561049257600080fd5b5061049b610e8a565b6040516104a891906129e9565b60405180910390f35b3480156104bd57600080fd5b506104d860048036038101906104d391906124d8565b610ef2565b6040516104e59190612bd6565b60405180910390f35b3480156104fa57600080fd5b50610503610f3b565b005b34801561051157600080fd5b5061052c600480360381019061052791906124d8565b610fc3565b60405161053c949392919061299d565b60405180910390f35b34801561055157600080fd5b5061055a61109b565b6040516105679190612982565b60405180910390f35b61058a6004803603810190610585919061252a565b6110c5565b60405161059791906129e9565b60405180910390f35b3480156105ac57600080fd5b506105c760048036038101906105c29190612681565b6111db565b6040516105d491906129e9565b60405180910390f35b3480156105e957600080fd5b506105f2611205565b6040516105ff9190612a04565b60405180910390f35b34801561061457600080fd5b5061062f600480360381019061062a9190612681565b611297565b60405161063d929190612c52565b60405180910390f35b34801561065257600080fd5b5061065b6112cb565b6040516106689190612bd6565b60405180910390f35b34801561067d57600080fd5b50610698600480360381019061069391906125f1565b6112d1565b6040516106a591906129e9565b60405180910390f35b3480156106ba57600080fd5b506106d560048036038101906106d091906125f1565b6113bc565b6040516106e291906129e9565b60405180910390f35b3480156106f757600080fd5b50610712600480360381019061070d9190612501565b6113da565b60405161071f91906129e9565b60405180910390f35b34801561073457600080fd5b5061073d61147c565b60405161074a9190612982565b60405180910390f35b34801561075f57600080fd5b5061077a60048036038101906107759190612681565b6114a2565b60405161078a949392919061299d565b60405180910390f35b34801561079f57600080fd5b506107ba60048036038101906107b59190612681565b61158a565b6040516107cc96959493929190612bf1565b60405180910390f35b3480156107e157600080fd5b506107ea6115f3565b6040516107f791906129e9565b60405180910390f35b34801561080c57600080fd5b50610827600480360381019061082291906126e6565b61166d565b6040516108349190612bd6565b60405180910390f35b34801561084957600080fd5b50610864600480360381019061085f919061262d565b61171e565b604051610872929190612a26565b60405180910390f35b34801561088757600080fd5b506108a2600480360381019061089d9190612566565b611be3565b6040516108af9190612bd6565b60405180910390f35b3480156108c457600080fd5b506108df60048036038101906108da91906124d8565b611c6a565b005b3480156108ed57600080fd5b506108f6611d62565b60405161090391906129e9565b60405180910390f35b60606004805461091b90612e12565b80601f016020809104026020016040519081016040528092919081815260200182805461094790612e12565b80156109945780601f1061096957610100808354040283529160200191610994565b820191906000526020600020905b81548152906001019060200180831161097757829003601f168201915b5050505050905090565b60006109b26109ab611ddc565b8484611de4565b6001905092915050565b602881815481106109cc57600080fd5b90600052602060002090600502016000915090508060000154908060010160009054906101000a900473ffffffffffffffffffffffffffffffffffffffff16908060010160149054906101000a900460ff16908060020154908060030154908060040154905086565b6000601154905090565b6000610a4c848484611faf565b6000600260008673ffffffffffffffffffffffffffffffffffffffff1673ffffffffffffffffffffffffffffffffffffffff1681526020019081526020016000206000610a97611ddc565b73ffffffffffffffffffffffffffffffffffffffff1673ffffffffffffffffffffffffffffffffffffffff16815260200190815260200160002054905082811015610b17576040517f08c379a0000000000000000000000000000000000000000000000000000000008152600401610b0e90612b36565b60405180910390fd5b610b2b85610b23611ddc565b858403611de4565b60019150509392505050565b60006012905090565b6000600660019054906101000a900460ff1615610b89576001600660016101000a81548160ff021916908315150217905550600660019054906101000a900460ff169050610bb7565b6000600660016101000a81548160ff021916908315150217905550600660019054906101000a900460ff1690505b90565b6000610c5c610bc7611ddc565b848460026000610bd5611ddc565b73ffffffffffffffffffffffffffffffffffffffff1673ffffffffffffffffffffffffffffffffffffffff16815260200190815260200160002060008873ffffffffffffffffffffffffffffffffffffffff1673ffffffffffffffffffffffffffffffffffffffff16815260200190815260200160002054610c579190612d13565b611de4565b6001905092915050565b600080600090508080610c7890612e75565b915050600c60009054906101000a900473ffffffffffffffffffffffffffffffffffffffff1673ffffffffffffffffffffffffffffffffffffffff163373ffffffffffffffffffffffffffffffffffffffff1614610d0b576040517f08c379a0000000000000000000000000000000000000000000000000000000008152600401610d0290612ad6565b60405180910390fd5b600083601660008681526020019081526020016000205414610df057836016600086815260200190815260200160002081905550604051806040016040528085815260200182815250601b60008201518160000155602082015181600101559050508360186000868152602001908152602001600020600001819055508160186000868152602001908152602001600020600101819055506026601b9080600181540180825580915050600190039060005260206000209060020201600090919091909150600082015481600001556001820154816001015550508392505050610df3565b50505b919050565b60186020528060005260406000206000915090508060000154908060010154905082565b60095481565b6000826015600085815260200190815260200160002060008473ffffffffffffffffffffffffffffffffffffffff1673ffffffffffffffffffffffffffffffffffffffff1681526020019081526020016000205414610e8057600080fd5b6001905092915050565b6000600860009054906101000a900460ff1615610ec1576001600860006101000a81548160ff021916908315150217905550610edd565b6000600860006101000a81548160ff0219169083151502179055505b600860009054906101000a900460ff16905090565b6000601260008373ffffffffffffffffffffffffffffffffffffffff1673ffffffffffffffffffffffffffffffffffffffff168152602001908152602001600020549050919050565b610f43611ddc565b73ffffffffffffffffffffffffffffffffffffffff16610f6161109b565b73ffffffffffffffffffffffffffffffffffffffff1614610fb7576040517f08c379a0000000000000000000000000000000000000000000000000000000008152600401610fae90612b56565b60405180910390fd5b610fc16000612233565b565b60196020528060005260406000206000915090508060000160009054906101000a900473ffffffffffffffffffffffffffffffffffffffff169080600101805461100c90612e12565b80601f016020809104026020016040519081016040528092919081815260200182805461103890612e12565b80156110855780601f1061105a57610100808354040283529160200191611085565b820191906000526020600020905b81548152906001019060200180831161106857829003601f168201915b5050505050908060020154908060030154905084565b6000600c60009054906101000a900473ffffffffffffffffffffffffffffffffffffffff16905090565b600081600f81905550600a821015611112576040517f08c379a000000000000000000000000000000000000000000000000000000000815260040161110990612b16565b60405180910390fd5b6000808473ffffffffffffffffffffffffffffffffffffffff16600f54622dc6c0906040516111409061296d565b600060405180830381858888f193505050503d806000811461117e576040519150601f19603f3d011682016040523d82523d6000602084013e611183565b606091505b509150915060011515821515146111cf576040517f08c379a00000000000000000000000000000000000000000000000000000000081526004016111c690612a76565b60405180910390fd5b60019250505092915050565b6000816016600084815260200190815260200160002054146111fc57600080fd5b60019050919050565b60606005805461121490612e12565b80601f016020809104026020016040519081016040528092919081815260200182805461124090612e12565b801561128d5780601f106112625761010080835404028352916020019161128d565b820191906000526020600020905b81548152906001019060200180831161127057829003601f168201915b5050505050905090565b602681815481106112a757600080fd5b90600052602060002090600202016000915090508060000154908060010154905082565b60115481565b600080600260006112e0611ddc565b73ffffffffffffffffffffffffffffffffffffffff1673ffffffffffffffffffffffffffffffffffffffff16815260200190815260200160002060008573ffffffffffffffffffffffffffffffffffffffff1673ffffffffffffffffffffffffffffffffffffffff1681526020019081526020016000205490508281101561139d576040517f08c379a000000000000000000000000000000000000000000000000000000000815260040161139490612bb6565b60405180910390fd5b6113b16113a8611ddc565b85858403611de4565b600191505092915050565b60006113d06113c9611ddc565b8484611faf565b6001905092915050565b60008173ffffffffffffffffffffffffffffffffffffffff16601760008473ffffffffffffffffffffffffffffffffffffffff1673ffffffffffffffffffffffffffffffffffffffff16815260200190815260200160002060009054906101000a900473ffffffffffffffffffffffffffffffffffffffff1673ffffffffffffffffffffffffffffffffffffffff161461147357600080fd5b60019050919050565b600c60009054906101000a900473ffffffffffffffffffffffffffffffffffffffff1681565b602781815481106114b257600080fd5b90600052602060002090600402016000915090508060000160009054906101000a900473ffffffffffffffffffffffffffffffffffffffff16908060010180546114fb90612e12565b80601f016020809104026020016040519081016040528092919081815260200182805461152790612e12565b80156115745780601f1061154957610100808354040283529160200191611574565b820191906000526020600020905b81548152906001019060200180831161155757829003601f168201915b5050505050908060020154908060030154905084565b601a6020528060005260406000206000915090508060000154908060010160009054906101000a900473ffffffffffffffffffffffffffffffffffffffff16908060010160149054906101000a900460ff16908060020154908060030154908060040154905086565b6000600660009054906101000a900460ff161561163c576001600660006101000a81548160ff021916908315150217905550600660009054906101000a900460ff16905061166a565b6000600660006101000a81548160ff021916908315150217905550600660009054906101000a900460ff1690505b90565b60008260098190555060011515611682610e8a565b1515141561171757600060146000600954815260200190815260200160002060008473ffffffffffffffffffffffffffffffffffffffff1673ffffffffffffffffffffffffffffffffffffffff16815260200190815260200160002054905061170d600c60009054906101000a900473ffffffffffffffffffffffffffffffffffffffff16826113bc565b5080915050611718565b5b92915050565b60606000600c60009054906101000a900473ffffffffffffffffffffffffffffffffffffffff1673ffffffffffffffffffffffffffffffffffffffff163373ffffffffffffffffffffffffffffffffffffffff16146117b2576040517f08c379a00000000000000000000000000000000000000000000000000000000081526004016117a990612ad6565b60405180910390fd5b600115156117c284600f546110c5565b15151415611bdb5760006117d584610ef2565b90508373ffffffffffffffffffffffffffffffffffffffff16601760008673ffffffffffffffffffffffffffffffffffffffff1673ffffffffffffffffffffffffffffffffffffffff16815260200190815260200160002060009054906101000a900473ffffffffffffffffffffffffffffffffffffffff1673ffffffffffffffffffffffffffffffffffffffff1614611bd95783601760008673ffffffffffffffffffffffffffffffffffffffff1673ffffffffffffffffffffffffffffffffffffffff16815260200190815260200160002060006101000a81548173ffffffffffffffffffffffffffffffffffffffff021916908373ffffffffffffffffffffffffffffffffffffffff16021790555060405180608001604052808573ffffffffffffffffffffffffffffffffffffffff1681526020018681526020016000815260200182815250601d60008201518160000160006101000a81548173ffffffffffffffffffffffffffffffffffffffff021916908373ffffffffffffffffffffffffffffffffffffffff1602179055506020820151816001019080519060200190611984929190612301565b50604082015181600201556060820151816003015590505083601960008673ffffffffffffffffffffffffffffffffffffffff1673ffffffffffffffffffffffffffffffffffffffff16815260200190815260200160002060000160006101000a81548173ffffffffffffffffffffffffffffffffffffffff021916908373ffffffffffffffffffffffffffffffffffffffff16021790555084601960008673ffffffffffffffffffffffffffffffffffffffff1673ffffffffffffffffffffffffffffffffffffffff1681526020019081526020016000206001019080519060200190611a73929190612301565b506000601960008673ffffffffffffffffffffffffffffffffffffffff1673ffffffffffffffffffffffffffffffffffffffff1681526020019081526020016000206002018190555080601960008673ffffffffffffffffffffffffffffffffffffffff1673ffffffffffffffffffffffffffffffffffffffff168152602001908152602001600020600301819055506027601d90806001815401808255809150506001900390600052602060002090600402016000909190919091506000820160009054906101000a900473ffffffffffffffffffffffffffffffffffffffff168160000160006101000a81548173ffffffffffffffffffffffffffffffffffffffff021916908373ffffffffffffffffffffffffffffffffffffffff1602179055506001820181600101908054611bab90612e12565b611bb6929190612387565b506002820154816002015560038201548160030155505084849250925050611bdc565b505b5b9250929050565b6000600260008473ffffffffffffffffffffffffffffffffffffffff1673ffffffffffffffffffffffffffffffffffffffff16815260200190815260200160002060008373ffffffffffffffffffffffffffffffffffffffff1673ffffffffffffffffffffffffffffffffffffffff16815260200190815260200160002054905092915050565b611c72611ddc565b73ffffffffffffffffffffffffffffffffffffffff16611c9061109b565b73ffffffffffffffffffffffffffffffffffffffff1614611ce6576040517f08c379a0000000000000000000000000000000000000000000000000000000008152600401611cdd90612b56565b60405180910390fd5b600073ffffffffffffffffffffffffffffffffffffffff168173ffffffffffffffffffffffffffffffffffffffff161415611d56576040517f08c379a0000000000000000000000000000000000000000000000000000000008152600401611d4d90612a96565b60405180910390fd5b611d5f81612233565b50565b6000600660029054906101000a900460ff1615611dab576001600660026101000a81548160ff021916908315150217905550600660029054906101000a900460ff169050611dd9565b6000600660026101000a81548160ff021916908315150217905550600660029054906101000a900460ff1690505b90565b600033905090565b600073ffffffffffffffffffffffffffffffffffffffff168373ffffffffffffffffffffffffffffffffffffffff161415611e54576040517f08c379a0000000000000000000000000000000000000000000000000000000008152600401611e4b90612b96565b60405180910390fd5b600073ffffffffffffffffffffffffffffffffffffffff168273ffffffffffffffffffffffffffffffffffffffff161415611ec4576040517f08c379a0000000000000000000000000000000000000000000000000000000008152600401611ebb90612ab6565b60405180910390fd5b80600260008573ffffffffffffffffffffffffffffffffffffffff1673ffffffffffffffffffffffffffffffffffffffff16815260200190815260200160002060008473ffffffffffffffffffffffffffffffffffffffff1673ffffffffffffffffffffffffffffffffffffffff168152602001908152602001600020819055508173ffffffffffffffffffffffffffffffffffffffff168373ffffffffffffffffffffffffffffffffffffffff167f8c5be1e5ebec7d5bd14f71427d1e84f3dd0314c0f7b2291e5b200ac8c7c3b92583604051611fa29190612bd6565b60405180910390a3505050565b600073ffffffffffffffffffffffffffffffffffffffff168373ffffffffffffffffffffffffffffffffffffffff16141561201f576040517f08c379a000000000000000000000000000000000000000000000000000000000815260040161201690612b76565b60405180910390fd5b600073ffffffffffffffffffffffffffffffffffffffff168273ffffffffffffffffffffffffffffffffffffffff16141561208f576040517f08c379a000000000000000000000000000000000000000000000000000000000815260040161208690612a56565b60405180910390fd5b61209a8383836122f7565b6000600160008573ffffffffffffffffffffffffffffffffffffffff1673ffffffffffffffffffffffffffffffffffffffff16815260200190815260200160002054905081811015612121576040517f08c379a000000000000000000000000000000000000000000000000000000000815260040161211890612af6565b60405180910390fd5b818103600160008673ffffffffffffffffffffffffffffffffffffffff1673ffffffffffffffffffffffffffffffffffffffff1681526020019081526020016000208190555081600160008573ffffffffffffffffffffffffffffffffffffffff1673ffffffffffffffffffffffffffffffffffffffff16815260200190815260200160002060008282546121b69190612d13565b925050819055508273ffffffffffffffffffffffffffffffffffffffff168473ffffffffffffffffffffffffffffffffffffffff167fddf252ad1be2c89b69c2b068fc378daa952ba7f163c4a11628f55a4df523b3ef8460405161221a9190612bd6565b60405180910390a361222d8484846122fc565b50505050565b60008060009054906101000a900473ffffffffffffffffffffffffffffffffffffffff169050816000806101000a81548173ffffffffffffffffffffffffffffffffffffffff021916908373ffffffffffffffffffffffffffffffffffffffff1602179055508173ffffffffffffffffffffffffffffffffffffffff168173ffffffffffffffffffffffffffffffffffffffff167f8be0079c531659141344cd1fd0a4f28419497f9722a3daafe3b4186f6b6457e060405160405180910390a35050565b505050565b505050565b82805461230d90612e12565b90600052602060002090601f01602090048101928261232f5760008555612376565b82601f1061234857805160ff1916838001178555612376565b82800160010185558215612376579182015b8281111561237557825182559160200191906001019061235a565b5b5090506123839190612414565b5090565b82805461239390612e12565b90600052602060002090601f0160209004810192826123b55760008555612403565b82601f106123c65780548555612403565b8280016001018555821561240357600052602060002091601f016020900482015b828111156124025782548255916001019190600101906123e7565b5b5090506124109190612414565b5090565b5b8082111561242d576000816000905550600101612415565b5090565b600061244461243f84612cbb565b612c96565b90508281526020810184848401111561245c57600080fd5b612467848285612dd0565b509392505050565b60008135905061247e8161327b565b92915050565b60008135905061249381613292565b92915050565b600082601f8301126124aa57600080fd5b81356124ba848260208601612431565b91505092915050565b6000813590506124d2816132a9565b92915050565b6000602082840312156124ea57600080fd5b60006124f88482850161246f565b91505092915050565b60006020828403121561251357600080fd5b600061252184828501612484565b91505092915050565b6000806040838503121561253d57600080fd5b600061254b85828601612484565b925050602061255c858286016124c3565b9150509250929050565b6000806040838503121561257957600080fd5b60006125878582860161246f565b92505060206125988582860161246f565b9150509250929050565b6000806000606084860312156125b757600080fd5b60006125c58682870161246f565b93505060206125d68682870161246f565b92505060406125e7868287016124c3565b9150509250925092565b6000806040838503121561260457600080fd5b60006126128582860161246f565b9250506020612623858286016124c3565b9150509250929050565b6000806040838503121561264057600080fd5b600083013567ffffffffffffffff81111561265a57600080fd5b61266685828601612499565b925050602061267785828601612484565b9150509250929050565b60006020828403121561269357600080fd5b60006126a1848285016124c3565b91505092915050565b600080604083850312156126bd57600080fd5b60006126cb858286016124c3565b92505060206126dc8582860161246f565b9150509250929050565b600080604083850312156126f957600080fd5b6000612707858286016124c3565b925050602061271885828601612484565b9150509250929050565b61272b81612d7b565b82525050565b61273a81612d69565b82525050565b61274981612d8d565b82525050565b600061275a82612cec565b6127648185612d02565b9350612774818560208601612ddf565b61277d81612f4b565b840191505092915050565b6000612795602383612d02565b91506127a082612f5c565b604082019050919050565b60006127b8601d83612d02565b91506127c382612fab565b602082019050919050565b60006127db602683612d02565b91506127e682612fd4565b604082019050919050565b60006127fe602283612d02565b915061280982613023565b604082019050919050565b6000612821601383612d02565b915061282c82613072565b602082019050919050565b6000612844602683612d02565b915061284f8261309b565b604082019050919050565b6000612867601a83612d02565b9150612872826130ea565b602082019050919050565b600061288a602883612d02565b915061289582613113565b604082019050919050565b60006128ad602083612d02565b91506128b882613162565b602082019050919050565b60006128d0602583612d02565b91506128db8261318b565b604082019050919050565b60006128f3600083612cf7565b91506128fe826131da565b600082019050919050565b6000612916602483612d02565b9150612921826131dd565b604082019050919050565b6000612939602583612d02565b91506129448261322c565b604082019050919050565b61295881612db9565b82525050565b61296781612dc3565b82525050565b6000612978826128e6565b9150819050919050565b60006020820190506129976000830184612731565b92915050565b60006080820190506129b26000830187612722565b81810360208301526129c4818661274f565b90506129d3604083018561294f565b6129e0606083018461294f565b95945050505050565b60006020820190506129fe6000830184612740565b92915050565b60006020820190508181036000830152612a1e818461274f565b905092915050565b60006040820190508181036000830152612a40818561274f565b9050612a4f6020830184612731565b9392505050565b60006020820190508181036000830152612a6f81612788565b9050919050565b60006020820190508181036000830152612a8f816127ab565b9050919050565b60006020820190508181036000830152612aaf816127ce565b9050919050565b60006020820190508181036000830152612acf816127f1565b9050919050565b60006020820190508181036000830152612aef81612814565b9050919050565b60006020820190508181036000830152612b0f81612837565b9050919050565b60006020820190508181036000830152612b2f8161285a565b9050919050565b60006020820190508181036000830152612b4f8161287d565b9050919050565b60006020820190508181036000830152612b6f816128a0565b9050919050565b60006020820190508181036000830152612b8f816128c3565b9050919050565b60006020820190508181036000830152612baf81612909565b9050919050565b60006020820190508181036000830152612bcf8161292c565b9050919050565b6000602082019050612beb600083018461294f565b92915050565b600060c082019050612c06600083018961294f565b612c136020830188612722565b612c206040830187612740565b612c2d606083018661294f565b612c3a608083018561294f565b612c4760a083018461294f565b979650505050505050565b6000604082019050612c67600083018561294f565b612c74602083018461294f565b9392505050565b6000602082019050612c90600083018461295e565b92915050565b6000612ca0612cb1565b9050612cac8282612e44565b919050565b6000604051905090565b600067ffffffffffffffff821115612cd657612cd5612f1c565b5b612cdf82612f4b565b9050602081019050919050565b600081519050919050565b600081905092915050565b600082825260208201905092915050565b6000612d1e82612db9565b9150612d2983612db9565b9250827fffffffffffffffffffffffffffffffffffffffffffffffffffffffffffffffff03821115612d5e57612d5d612ebe565b5b828201905092915050565b6000612d7482612d99565b9050919050565b6000612d8682612d99565b9050919050565b60008115159050919050565b600073ffffffffffffffffffffffffffffffffffffffff82169050919050565b6000819050919050565b600060ff82169050919050565b82818337600083830152505050565b60005b83811015612dfd578082015181840152602081019050612de2565b83811115612e0c576000848401525b50505050565b60006002820490506001821680612e2a57607f821691505b60208210811415612e3e57612e3d612eed565b5b50919050565b612e4d82612f4b565b810181811067ffffffffffffffff82111715612e6c57612e6b612f1c565b5b80604052505050565b6000612e8082612db9565b91507fffffffffffffffffffffffffffffffffffffffffffffffffffffffffffffffff821415612eb357612eb2612ebe565b5b600182019050919050565b7f4e487b7100000000000000000000000000000000000000000000000000000000600052601160045260246000fd5b7f4e487b7100000000000000000000000000000000000000000000000000000000600052602260045260246000fd5b7f4e487b7100000000000000000000000000000000000000000000000000000000600052604160045260246000fd5b6000601f19601f8301169050919050565b7f45524332303a207472616e7366657220746f20746865207a65726f206164647260008201527f6573730000000000000000000000000000000000000000000000000000000000602082015250565b7f436865636b2074686520616d6f756e742073656e742061732077656c6c000000600082015250565b7f4f776e61626c653a206e6577206f776e657220697320746865207a65726f206160008201527f6464726573730000000000000000000000000000000000000000000000000000602082015250565b7f45524332303a20617070726f766520746f20746865207a65726f20616464726560008201527f7373000000000000000000000000000000000000000000000000000000000000602082015250565b7f43616c6c6572206973206e6f74206f776e657200000000000000000000000000600082015250565b7f45524332303a207472616e7366657220616d6f756e742065786365656473206260008201527f616c616e63650000000000000000000000000000000000000000000000000000602082015250565b7f416d6f756e74206e6f7420656e6f75676820746f20706c617921000000000000600082015250565b7f45524332303a207472616e7366657220616d6f756e742065786365656473206160008201527f6c6c6f77616e6365000000000000000000000000000000000000000000000000602082015250565b7f4f776e61626c653a2063616c6c6572206973206e6f7420746865206f776e6572600082015250565b7f45524332303a207472616e736665722066726f6d20746865207a65726f20616460008201527f6472657373000000000000000000000000000000000000000000000000000000602082015250565b50565b7f45524332303a20617070726f76652066726f6d20746865207a65726f2061646460008201527f7265737300000000000000000000000000000000000000000000000000000000602082015250565b7f45524332303a2064656372656173656420616c6c6f77616e63652062656c6f7760008201527f207a65726f000000000000000000000000000000000000000000000000000000602082015250565b61328481612d69565b811461328f57600080fd5b50565b61329b81612d7b565b81146132a657600080fd5b50565b6132b281612db9565b81146132bd57600080fd5b5056fea2646970667358221220966729e7be58781dcf6f3ca738253fd36f5eef9d7378ad03b57817b0bd5ec88b64736f6c63430008020033",
  "devdoc": {
    "kind": "dev",
    "methods": {
      "allowance(address,address)": {
        "details": "See {IERC20-allowance}."
      },
      "approve(address,uint256)": {
        "details": "See {IERC20-approve}. Requirements: - `spender` cannot be the zero address."
      },
      "balanceOf(address)": {
        "details": "See {IERC20-balanceOf}."
      },
      "decimals()": {
        "details": "Returns the number of decimals used to get its user representation. For example, if `decimals` equals `2`, a balance of `505` tokens should be displayed to a user as `5.05` (`505 / 10 ** 2`). Tokens usually opt for a value of 18, imitating the relationship between Ether and Wei. This is the value {ERC20} uses, unless this function is overridden; NOTE: This information is only used for _display_ purposes: it in no way affects any of the arithmetic of the contract, including {IERC20-balanceOf} and {IERC20-transfer}."
      },
      "decreaseAllowance(address,uint256)": {
        "details": "Atomically decreases the allowance granted to `spender` by the caller. This is an alternative to {approve} that can be used as a mitigation for problems described in {IERC20-approve}. Emits an {Approval} event indicating the updated allowance. Requirements: - `spender` cannot be the zero address. - `spender` must have allowance for the caller of at least `subtractedValue`."
      },
      "increaseAllowance(address,uint256)": {
        "details": "Atomically increases the allowance granted to `spender` by the caller. This is an alternative to {approve} that can be used as a mitigation for problems described in {IERC20-approve}. Emits an {Approval} event indicating the updated allowance. Requirements: - `spender` cannot be the zero address."
      },
      "name()": {
        "details": "Returns the name of the token."
      },
      "owner()": {
        "details": "Returns the address of the current owner."
      },
      "renounceOwnership()": {
        "details": "Leaves the contract without owner. It will not be possible to call `onlyOwner` functions anymore. Can only be called by the current owner. NOTE: Renouncing ownership will leave the contract without an owner, thereby removing any functionality that is only available to the owner."
      },
      "symbol()": {
        "details": "Returns the symbol of the token, usually a shorter version of the name."
      },
      "totalSupply()": {
        "details": "See {IERC20-totalSupply}."
      },
      "transfer(address,uint256)": {
        "details": "See {IERC20-transfer}. Requirements: - `recipient` cannot be the zero address. - the caller must have a balance of at least `amount`."
      },
      "transferFrom(address,address,uint256)": {
        "details": "See {IERC20-transferFrom}. Emits an {Approval} event indicating the updated allowance. This is not required by the EIP. See the note at the beginning of {ERC20}. Requirements: - `sender` and `recipient` cannot be the zero address. - `sender` must have a balance of at least `amount`. - the caller must have allowance for ``sender``'s tokens of at least `amount`."
      },
      "transferOwnership(address)": {
        "details": "Transfers ownership of the contract to a new account (`newOwner`). Can only be called by the current owner."
      }
    },
    "version": 1
  },
  "userdoc": {
    "kind": "user",
    "methods": {
      "constructor": {
        "notice": "npn Contract initialization. The `constructor` is executed only once when the contract is created."
      },
      "payfee(address,uint256)": {
        "notice": "A function to transfer tokens. The `external` modifier makes a function *only* callable from outside the contract."
      }
    },
    "version": 1
  },
  "storageLayout": {
    "storage": [
      {
        "astId": 7,
        "contract": "contracts/RockPaperScissors.sol:RockPaperScissors",
        "label": "_owner",
        "offset": 0,
        "slot": "0",
        "type": "t_address"
      },
      {
        "astId": 119,
        "contract": "contracts/RockPaperScissors.sol:RockPaperScissors",
        "label": "_balances",
        "offset": 0,
        "slot": "1",
        "type": "t_mapping(t_address,t_uint256)"
      },
      {
        "astId": 125,
        "contract": "contracts/RockPaperScissors.sol:RockPaperScissors",
        "label": "_allowances",
        "offset": 0,
        "slot": "2",
        "type": "t_mapping(t_address,t_mapping(t_address,t_uint256))"
      },
      {
        "astId": 127,
        "contract": "contracts/RockPaperScissors.sol:RockPaperScissors",
        "label": "_totalSupply",
        "offset": 0,
        "slot": "3",
        "type": "t_uint256"
      },
      {
        "astId": 129,
        "contract": "contracts/RockPaperScissors.sol:RockPaperScissors",
        "label": "_name",
        "offset": 0,
        "slot": "4",
        "type": "t_string_storage"
      },
      {
        "astId": 131,
        "contract": "contracts/RockPaperScissors.sol:RockPaperScissors",
        "label": "_symbol",
        "offset": 0,
        "slot": "5",
        "type": "t_string_storage"
      },
      {
        "astId": 796,
        "contract": "contracts/RockPaperScissors.sol:RockPaperScissors",
        "label": "rockchosen",
        "offset": 0,
        "slot": "6",
        "type": "t_bool"
      },
      {
        "astId": 799,
        "contract": "contracts/RockPaperScissors.sol:RockPaperScissors",
        "label": "scissorschosen",
        "offset": 1,
        "slot": "6",
        "type": "t_bool"
      },
      {
        "astId": 802,
        "contract": "contracts/RockPaperScissors.sol:RockPaperScissors",
        "label": "paperchosen",
        "offset": 2,
        "slot": "6",
        "type": "t_bool"
      },
      {
        "astId": 804,
        "contract": "contracts/RockPaperScissors.sol:RockPaperScissors",
        "label": "choicemade",
        "offset": 0,
        "slot": "7",
        "type": "t_string_storage"
      },
      {
        "astId": 807,
        "contract": "contracts/RockPaperScissors.sol:RockPaperScissors",
        "label": "setprevwinnings",
        "offset": 0,
        "slot": "8",
        "type": "t_bool"
      },
      {
        "astId": 809,
        "contract": "contracts/RockPaperScissors.sol:RockPaperScissors",
        "label": "prev_gamestaked",
        "offset": 0,
        "slot": "9",
        "type": "t_uint256"
      },
      {
        "astId": 812,
        "contract": "contracts/RockPaperScissors.sol:RockPaperScissors",
        "label": "_tokenname",
        "offset": 0,
        "slot": "10",
        "type": "t_string_storage"
      },
      {
        "astId": 815,
        "contract": "contracts/RockPaperScissors.sol:RockPaperScissors",
        "label": "_tokensymbol",
        "offset": 0,
        "slot": "11",
        "type": "t_string_storage"
      },
      {
        "astId": 817,
        "contract": "contracts/RockPaperScissors.sol:RockPaperScissors",
        "label": "_owner",
        "offset": 0,
        "slot": "12",
        "type": "t_address"
      },
      {
        "astId": 820,
        "contract": "contracts/RockPaperScissors.sol:RockPaperScissors",
        "label": "randNonce",
        "offset": 0,
        "slot": "13",
        "type": "t_uint256"
      },
      {
        "astId": 823,
        "contract": "contracts/RockPaperScissors.sol:RockPaperScissors",
        "label": "modulus",
        "offset": 0,
        "slot": "14",
        "type": "t_uint256"
      },
      {
        "astId": 826,
        "contract": "contracts/RockPaperScissors.sol:RockPaperScissors",
        "label": "_payfee",
        "offset": 0,
        "slot": "15",
        "type": "t_uint256"
      },
      {
        "astId": 829,
        "contract": "contracts/RockPaperScissors.sol:RockPaperScissors",
        "label": "maxWaitTime",
        "offset": 0,
        "slot": "16",
        "type": "t_uint256"
      },
      {
        "astId": 859,
        "contract": "contracts/RockPaperScissors.sol:RockPaperScissors",
        "label": "totalsupplytokens",
        "offset": 0,
        "slot": "17",
        "type": "t_uint256"
      },
      {
        "astId": 863,
        "contract": "contracts/RockPaperScissors.sol:RockPaperScissors",
        "label": "balances",
        "offset": 0,
        "slot": "18",
        "type": "t_mapping(t_address,t_uint256)"
      },
      {
        "astId": 869,
        "contract": "contracts/RockPaperScissors.sol:RockPaperScissors",
        "label": "playeringamecheck",
        "offset": 0,
        "slot": "19",
        "type": "t_mapping(t_address,t_mapping(t_bytes32,t_bool))"
      },
      {
        "astId": 875,
        "contract": "contracts/RockPaperScissors.sol:RockPaperScissors",
        "label": "prev_winning",
        "offset": 0,
        "slot": "20",
        "type": "t_mapping(t_uint256,t_mapping(t_address,t_uint256))"
      },
      {
        "astId": 881,
        "contract": "contracts/RockPaperScissors.sol:RockPaperScissors",
        "label": "gamewithplayer",
        "offset": 0,
        "slot": "21",
        "type": "t_mapping(t_uint256,t_mapping(t_address,t_uint256))"
      },
      {
        "astId": 885,
        "contract": "contracts/RockPaperScissors.sol:RockPaperScissors",
        "label": "gamesplayed",
        "offset": 0,
        "slot": "22",
        "type": "t_mapping(t_uint256,t_uint256)"
      },
      {
        "astId": 889,
        "contract": "contracts/RockPaperScissors.sol:RockPaperScissors",
        "label": "playersplayed",
        "offset": 0,
        "slot": "23",
        "type": "t_mapping(t_address,t_address)"
      },
      {
        "astId": 894,
        "contract": "contracts/RockPaperScissors.sol:RockPaperScissors",
        "label": "_games",
        "offset": 0,
        "slot": "24",
        "type": "t_mapping(t_uint256,t_struct(Game)834_storage)"
      },
      {
        "astId": 899,
        "contract": "contracts/RockPaperScissors.sol:RockPaperScissors",
        "label": "_playerstore",
        "offset": 0,
        "slot": "25",
        "type": "t_mapping(t_address,t_struct(Players)843_storage)"
      },
      {
        "astId": 904,
        "contract": "contracts/RockPaperScissors.sol:RockPaperScissors",
        "label": "_playinggames",
        "offset": 0,
        "slot": "26",
        "type": "t_mapping(t_uint256,t_struct(PlayingGame)856_storage)"
      },
      {
        "astId": 907,
        "contract": "contracts/RockPaperScissors.sol:RockPaperScissors",
        "label": "newgame",
        "offset": 0,
        "slot": "27",
        "type": "t_struct(Game)834_storage"
      },
      {
        "astId": 910,
        "contract": "contracts/RockPaperScissors.sol:RockPaperScissors",
        "label": "newplayerregistered",
        "offset": 0,
        "slot": "29",
        "type": "t_struct(Players)843_storage"
      },
      {
        "astId": 913,
        "contract": "contracts/RockPaperScissors.sol:RockPaperScissors",
        "label": "playerinthegame",
        "offset": 0,
        "slot": "33",
        "type": "t_struct(PlayingGame)856_storage"
      },
      {
        "astId": 917,
        "contract": "contracts/RockPaperScissors.sol:RockPaperScissors",
        "label": "gamesregistered",
        "offset": 0,
        "slot": "38",
        "type": "t_array(t_struct(Game)834_storage)dyn_storage"
      },
      {
        "astId": 921,
        "contract": "contracts/RockPaperScissors.sol:RockPaperScissors",
        "label": "playersregistered",
        "offset": 0,
        "slot": "39",
        "type": "t_array(t_struct(Players)843_storage)dyn_storage"
      },
      {
        "astId": 925,
        "contract": "contracts/RockPaperScissors.sol:RockPaperScissors",
        "label": "gameinplay",
        "offset": 0,
        "slot": "40",
        "type": "t_array(t_struct(PlayingGame)856_storage)dyn_storage"
      }
    ],
    "types": {
      "t_address": {
        "encoding": "inplace",
        "label": "address",
        "numberOfBytes": "20"
      },
      "t_address_payable": {
        "encoding": "inplace",
        "label": "address payable",
        "numberOfBytes": "20"
      },
      "t_array(t_struct(Game)834_storage)dyn_storage": {
        "base": "t_struct(Game)834_storage",
        "encoding": "dynamic_array",
        "label": "struct RockPaperScissors.Game[]",
        "numberOfBytes": "32"
      },
      "t_array(t_struct(Players)843_storage)dyn_storage": {
        "base": "t_struct(Players)843_storage",
        "encoding": "dynamic_array",
        "label": "struct RockPaperScissors.Players[]",
        "numberOfBytes": "32"
      },
      "t_array(t_struct(PlayingGame)856_storage)dyn_storage": {
        "base": "t_struct(PlayingGame)856_storage",
        "encoding": "dynamic_array",
        "label": "struct RockPaperScissors.PlayingGame[]",
        "numberOfBytes": "32"
      },
      "t_bool": {
        "encoding": "inplace",
        "label": "bool",
        "numberOfBytes": "1"
      },
      "t_bytes32": {
        "encoding": "inplace",
        "label": "bytes32",
        "numberOfBytes": "32"
      },
      "t_mapping(t_address,t_address)": {
        "encoding": "mapping",
        "key": "t_address",
        "label": "mapping(address => address)",
        "numberOfBytes": "32",
        "value": "t_address"
      },
      "t_mapping(t_address,t_mapping(t_address,t_uint256))": {
        "encoding": "mapping",
        "key": "t_address",
        "label": "mapping(address => mapping(address => uint256))",
        "numberOfBytes": "32",
        "value": "t_mapping(t_address,t_uint256)"
      },
      "t_mapping(t_address,t_mapping(t_bytes32,t_bool))": {
        "encoding": "mapping",
        "key": "t_address",
        "label": "mapping(address => mapping(bytes32 => bool))",
        "numberOfBytes": "32",
        "value": "t_mapping(t_bytes32,t_bool)"
      },
      "t_mapping(t_address,t_struct(Players)843_storage)": {
        "encoding": "mapping",
        "key": "t_address",
        "label": "mapping(address => struct RockPaperScissors.Players)",
        "numberOfBytes": "32",
        "value": "t_struct(Players)843_storage"
      },
      "t_mapping(t_address,t_uint256)": {
        "encoding": "mapping",
        "key": "t_address",
        "label": "mapping(address => uint256)",
        "numberOfBytes": "32",
        "value": "t_uint256"
      },
      "t_mapping(t_bytes32,t_bool)": {
        "encoding": "mapping",
        "key": "t_bytes32",
        "label": "mapping(bytes32 => bool)",
        "numberOfBytes": "32",
        "value": "t_bool"
      },
      "t_mapping(t_uint256,t_mapping(t_address,t_uint256))": {
        "encoding": "mapping",
        "key": "t_uint256",
        "label": "mapping(uint256 => mapping(address => uint256))",
        "numberOfBytes": "32",
        "value": "t_mapping(t_address,t_uint256)"
      },
      "t_mapping(t_uint256,t_struct(Game)834_storage)": {
        "encoding": "mapping",
        "key": "t_uint256",
        "label": "mapping(uint256 => struct RockPaperScissors.Game)",
        "numberOfBytes": "32",
        "value": "t_struct(Game)834_storage"
      },
      "t_mapping(t_uint256,t_struct(PlayingGame)856_storage)": {
        "encoding": "mapping",
        "key": "t_uint256",
        "label": "mapping(uint256 => struct RockPaperScissors.PlayingGame)",
        "numberOfBytes": "32",
        "value": "t_struct(PlayingGame)856_storage"
      },
      "t_mapping(t_uint256,t_uint256)": {
        "encoding": "mapping",
        "key": "t_uint256",
        "label": "mapping(uint256 => uint256)",
        "numberOfBytes": "32",
        "value": "t_uint256"
      },
      "t_string_storage": {
        "encoding": "bytes",
        "label": "string",
        "numberOfBytes": "32"
      },
      "t_struct(Game)834_storage": {
        "encoding": "inplace",
        "label": "struct RockPaperScissors.Game",
        "members": [
          {
            "astId": 831,
            "contract": "contracts/RockPaperScissors.sol:RockPaperScissors",
            "label": "gameid",
            "offset": 0,
            "slot": "0",
            "type": "t_uint256"
          },
          {
            "astId": 833,
            "contract": "contracts/RockPaperScissors.sol:RockPaperScissors",
            "label": "gamecount",
            "offset": 0,
            "slot": "1",
            "type": "t_uint256"
          }
        ],
        "numberOfBytes": "64"
      },
      "t_struct(Players)843_storage": {
        "encoding": "inplace",
        "label": "struct RockPaperScissors.Players",
        "members": [
          {
            "astId": 836,
            "contract": "contracts/RockPaperScissors.sol:RockPaperScissors",
            "label": "playeraddress",
            "offset": 0,
            "slot": "0",
            "type": "t_address_payable"
          },
          {
            "astId": 838,
            "contract": "contracts/RockPaperScissors.sol:RockPaperScissors",
            "label": "playername",
            "offset": 0,
            "slot": "1",
            "type": "t_string_storage"
          },
          {
            "astId": 840,
            "contract": "contracts/RockPaperScissors.sol:RockPaperScissors",
            "label": "playerscore",
            "offset": 0,
            "slot": "2",
            "type": "t_uint256"
          },
          {
            "astId": 842,
            "contract": "contracts/RockPaperScissors.sol:RockPaperScissors",
            "label": "playerbalance",
            "offset": 0,
            "slot": "3",
            "type": "t_uint256"
          }
        ],
        "numberOfBytes": "128"
      },
      "t_struct(PlayingGame)856_storage": {
        "encoding": "inplace",
        "label": "struct RockPaperScissors.PlayingGame",
        "members": [
          {
            "astId": 845,
            "contract": "contracts/RockPaperScissors.sol:RockPaperScissors",
            "label": "playinggameid",
            "offset": 0,
            "slot": "0",
            "type": "t_uint256"
          },
          {
            "astId": 847,
            "contract": "contracts/RockPaperScissors.sol:RockPaperScissors",
            "label": "playerininaddress",
            "offset": 0,
            "slot": "1",
            "type": "t_address_payable"
          },
          {
            "astId": 849,
            "contract": "contracts/RockPaperScissors.sol:RockPaperScissors",
            "label": "gameover",
            "offset": 20,
            "slot": "1",
            "type": "t_bool"
          },
          {
            "astId": 851,
            "contract": "contracts/RockPaperScissors.sol:RockPaperScissors",
            "label": "gamescore",
            "offset": 0,
            "slot": "2",
            "type": "t_uint256"
          },
          {
            "astId": 853,
            "contract": "contracts/RockPaperScissors.sol:RockPaperScissors",
            "label": "playerscount",
            "offset": 0,
            "slot": "3",
            "type": "t_uint256"
          },
          {
            "astId": 855,
            "contract": "contracts/RockPaperScissors.sol:RockPaperScissors",
            "label": "duration",
            "offset": 0,
            "slot": "4",
            "type": "t_uint256"
          }
        ],
        "numberOfBytes": "160"
      },
      "t_uint256": {
        "encoding": "inplace",
        "label": "uint256",
        "numberOfBytes": "32"
      }
    }
  }
}