{
  "address": "0x2d87597f9c992d234e085AabE703220898484F45",
  "abi": [
    {
      "inputs": [
        {
          "internalType": "address",
          "name": "_VRFCoordinator",
          "type": "address"
        },
        {
          "internalType": "address",
          "name": "_LinkToken",
          "type": "address"
        },
        {
          "internalType": "bytes32",
          "name": "_keyhash",
          "type": "bytes32"
        },
        {
          "internalType": "uint256",
          "name": "_fee",
          "type": "uint256"
        }
      ],
      "stateMutability": "nonpayable",
      "type": "constructor"
    },
    {
      "anonymous": false,
      "inputs": [
        {
          "indexed": true,
          "internalType": "address",
          "name": "owner",
          "type": "address"
        },
        {
          "indexed": true,
          "internalType": "address",
          "name": "approved",
          "type": "address"
        },
        {
          "indexed": true,
          "internalType": "uint256",
          "name": "tokenId",
          "type": "uint256"
        }
      ],
      "name": "Approval",
      "type": "event"
    },
    {
      "anonymous": false,
      "inputs": [
        {
          "indexed": true,
          "internalType": "address",
          "name": "owner",
          "type": "address"
        },
        {
          "indexed": true,
          "internalType": "address",
          "name": "operator",
          "type": "address"
        },
        {
          "indexed": false,
          "internalType": "bool",
          "name": "approved",
          "type": "bool"
        }
      ],
      "name": "ApprovalForAll",
      "type": "event"
    },
    {
      "anonymous": false,
      "inputs": [
        {
          "indexed": true,
          "internalType": "uint256",
          "name": "tokenId",
          "type": "uint256"
        },
        {
          "indexed": false,
          "internalType": "string",
          "name": "tokenURI",
          "type": "string"
        }
      ],
      "name": "CreatedRandomSVG",
      "type": "event"
    },
    {
      "anonymous": false,
      "inputs": [
        {
          "indexed": true,
          "internalType": "uint256",
          "name": "tokenId",
          "type": "uint256"
        },
        {
          "indexed": false,
          "internalType": "uint256",
          "name": "randomNumber",
          "type": "uint256"
        }
      ],
      "name": "CreatedUnfinishedRandomSVG",
      "type": "event"
    },
    {
      "anonymous": false,
      "inputs": [
        {
          "indexed": true,
          "internalType": "address",
          "name": "previousOwner",
          "type": "address"
        },
        {
          "indexed": true,
          "internalType": "address",
          "name": "newOwner",
          "type": "address"
        }
      ],
      "name": "OwnershipTransferred",
      "type": "event"
    },
    {
      "anonymous": false,
      "inputs": [
        {
          "indexed": true,
          "internalType": "address",
          "name": "from",
          "type": "address"
        },
        {
          "indexed": true,
          "internalType": "address",
          "name": "to",
          "type": "address"
        },
        {
          "indexed": true,
          "internalType": "uint256",
          "name": "tokenId",
          "type": "uint256"
        }
      ],
      "name": "Transfer",
      "type": "event"
    },
    {
      "anonymous": false,
      "inputs": [
        {
          "indexed": false,
          "internalType": "uint256",
          "name": "_randomnumber",
          "type": "uint256"
        }
      ],
      "name": "randomnumberreceived",
      "type": "event"
    },
    {
      "anonymous": false,
      "inputs": [
        {
          "indexed": true,
          "internalType": "bytes32",
          "name": "requestId",
          "type": "bytes32"
        },
        {
          "indexed": true,
          "internalType": "uint256",
          "name": "tokenId",
          "type": "uint256"
        }
      ],
      "name": "requestedRandomSVG",
      "type": "event"
    },
    {
      "inputs": [
        {
          "internalType": "address",
          "name": "to",
          "type": "address"
        },
        {
          "internalType": "uint256",
          "name": "tokenId",
          "type": "uint256"
        }
      ],
      "name": "approve",
      "outputs": [],
      "stateMutability": "nonpayable",
      "type": "function"
    },
    {
      "inputs": [
        {
          "internalType": "address",
          "name": "owner",
          "type": "address"
        }
      ],
      "name": "balanceOf",
      "outputs": [
        {
          "internalType": "uint256",
          "name": "",
          "type": "uint256"
        }
      ],
      "stateMutability": "view",
      "type": "function"
    },
    {
      "inputs": [
        {
          "internalType": "bytes32",
          "name": "_bytes32",
          "type": "bytes32"
        }
      ],
      "name": "bytes32ToString",
      "outputs": [
        {
          "internalType": "string",
          "name": "",
          "type": "string"
        }
      ],
      "stateMutability": "pure",
      "type": "function"
    },
    {
      "inputs": [
        {
          "internalType": "uint256",
          "name": "",
          "type": "uint256"
        }
      ],
      "name": "colors",
      "outputs": [
        {
          "internalType": "string",
          "name": "",
          "type": "string"
        }
      ],
      "stateMutability": "view",
      "type": "function"
    },
    {
      "inputs": [],
      "name": "create",
      "outputs": [
        {
          "internalType": "bytes32",
          "name": "requestId",
          "type": "bytes32"
        }
      ],
      "stateMutability": "nonpayable",
      "type": "function"
    },
    {
      "inputs": [
        {
          "internalType": "uint256",
          "name": "tokenId",
          "type": "uint256"
        }
      ],
      "name": "finishMint",
      "outputs": [],
      "stateMutability": "nonpayable",
      "type": "function"
    },
    {
      "inputs": [
        {
          "internalType": "string",
          "name": "imageURI",
          "type": "string"
        }
      ],
      "name": "formatTokenURI",
      "outputs": [
        {
          "internalType": "string",
          "name": "",
          "type": "string"
        }
      ],
      "stateMutability": "pure",
      "type": "function"
    },
    {
      "inputs": [
        {
          "internalType": "uint256",
          "name": "_randomness",
          "type": "uint256"
        }
      ],
      "name": "generatePath",
      "outputs": [
        {
          "internalType": "string",
          "name": "pathSvg",
          "type": "string"
        }
      ],
      "stateMutability": "view",
      "type": "function"
    },
    {
      "inputs": [
        {
          "internalType": "uint256",
          "name": "_randomness",
          "type": "uint256"
        }
      ],
      "name": "generatePathCommand",
      "outputs": [
        {
          "internalType": "string",
          "name": "pathCommand",
          "type": "string"
        }
      ],
      "stateMutability": "view",
      "type": "function"
    },
    {
      "inputs": [
        {
          "internalType": "uint256",
          "name": "_randomness",
          "type": "uint256"
        }
      ],
      "name": "generateSVG",
      "outputs": [
        {
          "internalType": "string",
          "name": "finalSvg",
          "type": "string"
        }
      ],
      "stateMutability": "view",
      "type": "function"
    },
    {
      "inputs": [
        {
          "internalType": "uint256",
          "name": "tokenId",
          "type": "uint256"
        }
      ],
      "name": "getApproved",
      "outputs": [
        {
          "internalType": "address",
          "name": "",
          "type": "address"
        }
      ],
      "stateMutability": "view",
      "type": "function"
    },
    {
      "inputs": [
        {
          "internalType": "address",
          "name": "owner",
          "type": "address"
        },
        {
          "internalType": "address",
          "name": "operator",
          "type": "address"
        }
      ],
      "name": "isApprovedForAll",
      "outputs": [
        {
          "internalType": "bool",
          "name": "",
          "type": "bool"
        }
      ],
      "stateMutability": "view",
      "type": "function"
    },
    {
      "inputs": [],
      "name": "maxNumberOfPathCommands",
      "outputs": [
        {
          "internalType": "uint256",
          "name": "",
          "type": "uint256"
        }
      ],
      "stateMutability": "view",
      "type": "function"
    },
    {
      "inputs": [],
      "name": "maxNumberOfPaths",
      "outputs": [
        {
          "internalType": "uint256",
          "name": "",
          "type": "uint256"
        }
      ],
      "stateMutability": "view",
      "type": "function"
    },
    {
      "inputs": [],
      "name": "name",
      "outputs": [
        {
          "internalType": "string",
          "name": "",
          "type": "string"
        }
      ],
      "stateMutability": "view",
      "type": "function"
    },
    {
      "inputs": [],
      "name": "owner",
      "outputs": [
        {
          "internalType": "address",
          "name": "",
          "type": "address"
        }
      ],
      "stateMutability": "view",
      "type": "function"
    },
    {
      "inputs": [
        {
          "internalType": "uint256",
          "name": "tokenId",
          "type": "uint256"
        }
      ],
      "name": "ownerOf",
      "outputs": [
        {
          "internalType": "address",
          "name": "",
          "type": "address"
        }
      ],
      "stateMutability": "view",
      "type": "function"
    },
    {
      "inputs": [
        {
          "internalType": "uint256",
          "name": "",
          "type": "uint256"
        }
      ],
      "name": "pathCommands",
      "outputs": [
        {
          "internalType": "string",
          "name": "",
          "type": "string"
        }
      ],
      "stateMutability": "view",
      "type": "function"
    },
    {
      "inputs": [
        {
          "internalType": "bytes32",
          "name": "requestId",
          "type": "bytes32"
        },
        {
          "internalType": "uint256",
          "name": "randomness",
          "type": "uint256"
        }
      ],
      "name": "rawFulfillRandomness",
      "outputs": [],
      "stateMutability": "nonpayable",
      "type": "function"
    },
    {
      "inputs": [],
      "name": "renounceOwnership",
      "outputs": [],
      "stateMutability": "nonpayable",
      "type": "function"
    },
    {
      "inputs": [
        {
          "internalType": "bytes32",
          "name": "",
          "type": "bytes32"
        }
      ],
      "name": "requestIdToSender",
      "outputs": [
        {
          "internalType": "address",
          "name": "",
          "type": "address"
        }
      ],
      "stateMutability": "view",
      "type": "function"
    },
    {
      "inputs": [
        {
          "internalType": "bytes32",
          "name": "",
          "type": "bytes32"
        }
      ],
      "name": "requestIdToTokenId",
      "outputs": [
        {
          "internalType": "uint256",
          "name": "",
          "type": "uint256"
        }
      ],
      "stateMutability": "view",
      "type": "function"
    },
    {
      "inputs": [
        {
          "internalType": "address",
          "name": "from",
          "type": "address"
        },
        {
          "internalType": "address",
          "name": "to",
          "type": "address"
        },
        {
          "internalType": "uint256",
          "name": "tokenId",
          "type": "uint256"
        }
      ],
      "name": "safeTransferFrom",
      "outputs": [],
      "stateMutability": "nonpayable",
      "type": "function"
    },
    {
      "inputs": [
        {
          "internalType": "address",
          "name": "from",
          "type": "address"
        },
        {
          "internalType": "address",
          "name": "to",
          "type": "address"
        },
        {
          "internalType": "uint256",
          "name": "tokenId",
          "type": "uint256"
        },
        {
          "internalType": "bytes",
          "name": "_data",
          "type": "bytes"
        }
      ],
      "name": "safeTransferFrom",
      "outputs": [],
      "stateMutability": "nonpayable",
      "type": "function"
    },
    {
      "inputs": [
        {
          "internalType": "address",
          "name": "operator",
          "type": "address"
        },
        {
          "internalType": "bool",
          "name": "approved",
          "type": "bool"
        }
      ],
      "name": "setApprovalForAll",
      "outputs": [],
      "stateMutability": "nonpayable",
      "type": "function"
    },
    {
      "inputs": [],
      "name": "size",
      "outputs": [
        {
          "internalType": "uint256",
          "name": "",
          "type": "uint256"
        }
      ],
      "stateMutability": "view",
      "type": "function"
    },
    {
      "inputs": [
        {
          "internalType": "bytes4",
          "name": "interfaceId",
          "type": "bytes4"
        }
      ],
      "name": "supportsInterface",
      "outputs": [
        {
          "internalType": "bool",
          "name": "",
          "type": "bool"
        }
      ],
      "stateMutability": "view",
      "type": "function"
    },
    {
      "inputs": [
        {
          "internalType": "string",
          "name": "svg",
          "type": "string"
        }
      ],
      "name": "svgToImageURI",
      "outputs": [
        {
          "internalType": "string",
          "name": "",
          "type": "string"
        }
      ],
      "stateMutability": "pure",
      "type": "function"
    },
    {
      "inputs": [],
      "name": "symbol",
      "outputs": [
        {
          "internalType": "string",
          "name": "",
          "type": "string"
        }
      ],
      "stateMutability": "view",
      "type": "function"
    },
    {
      "inputs": [],
      "name": "tokenCounter",
      "outputs": [
        {
          "internalType": "uint256",
          "name": "",
          "type": "uint256"
        }
      ],
      "stateMutability": "view",
      "type": "function"
    },
    {
      "inputs": [
        {
          "internalType": "uint256",
          "name": "",
          "type": "uint256"
        }
      ],
      "name": "tokenIdToRandomNumber",
      "outputs": [
        {
          "internalType": "uint256",
          "name": "",
          "type": "uint256"
        }
      ],
      "stateMutability": "view",
      "type": "function"
    },
    {
      "inputs": [
        {
          "internalType": "uint256",
          "name": "tokenId",
          "type": "uint256"
        }
      ],
      "name": "tokenURI",
      "outputs": [
        {
          "internalType": "string",
          "name": "",
          "type": "string"
        }
      ],
      "stateMutability": "view",
      "type": "function"
    },
    {
      "inputs": [
        {
          "internalType": "address",
          "name": "from",
          "type": "address"
        },
        {
          "internalType": "address",
          "name": "to",
          "type": "address"
        },
        {
          "internalType": "uint256",
          "name": "tokenId",
          "type": "uint256"
        }
      ],
      "name": "transferFrom",
      "outputs": [],
      "stateMutability": "nonpayable",
      "type": "function"
    },
    {
      "inputs": [
        {
          "internalType": "address",
          "name": "newOwner",
          "type": "address"
        }
      ],
      "name": "transferOwnership",
      "outputs": [],
      "stateMutability": "nonpayable",
      "type": "function"
    },
    {
      "inputs": [],
      "name": "withdraw",
      "outputs": [],
      "stateMutability": "payable",
      "type": "function"
    }
  ],
  "transactionHash": "0xf467af29e76416f1d44ae1b3d19d2b852f4fd1ee8fbd2b69484d284aa88b2726",
  "args": [
    "0xb3dCcb4Cf7a26f6cf6B120Cf5A73875B7BBc655B",
    "0x01be23585060835e02b77ef475b0cc51aa1e0709",
    "0x2ed0feb3e7fd2022120aa84fab1945545a9f2ffc9076fd6156fa96eaff4c1311",
    "100000000000000000"
  ],
  "solcInputHash": "ea9c3a4036d429a3221744a2da6b040c",
  "bytecode": "0x60c06040523480156200001157600080fd5b5060405162005b2538038062005b258339818101604052810190620000379190620006b1565b83836040518060400160405280600981526020017f52616e646f6d53564700000000000000000000000000000000000000000000008152506040518060400160405280600581526020017f72734e46540000000000000000000000000000000000000000000000000000008152508160009080519060200190620000bd92919062000480565b508060019080519060200190620000d692919062000480565b5050508173ffffffffffffffffffffffffffffffffffffffff1660a08173ffffffffffffffffffffffffffffffffffffffff1660601b815250508073ffffffffffffffffffffffffffffffffffffffff1660808173ffffffffffffffffffffffffffffffffffffffff1660601b815250505050620001696200015d620003b260201b60201c565b620003ba60201b60201c565b600060098190555081600d8190555080600e81905550600a600f8190555060056010819055506101f460118190555060405180604001604052806040518060400160405280600181526020017f4d0000000000000000000000000000000000000000000000000000000000000081525081526020016040518060400160405280600181526020017f4c0000000000000000000000000000000000000000000000000000000000000081525081525060129060026200022992919062000511565b506040518060c001604052806040518060400160405280600381526020017f726564000000000000000000000000000000000000000000000000000000000081525081526020016040518060400160405280600481526020017f626c75650000000000000000000000000000000000000000000000000000000081525081526020016040518060400160405280600581526020017f677265656e00000000000000000000000000000000000000000000000000000081525081526020016040518060400160405280600681526020017f79656c6c6f77000000000000000000000000000000000000000000000000000081525081526020016040518060400160405280600581526020017f626c61636b00000000000000000000000000000000000000000000000000000081525081526020016040518060400160405280600581526020017f77686974650000000000000000000000000000000000000000000000000000008152508152506013906006620003a792919062000578565b505050505062000818565b600033905090565b6000600860009054906101000a900473ffffffffffffffffffffffffffffffffffffffff16905081600860006101000a81548173ffffffffffffffffffffffffffffffffffffffff021916908373ffffffffffffffffffffffffffffffffffffffff1602179055508173ffffffffffffffffffffffffffffffffffffffff168173ffffffffffffffffffffffffffffffffffffffff167f8be0079c531659141344cd1fd0a4f28419497f9722a3daafe3b4186f6b6457e060405160405180910390a35050565b8280546200048e9062000765565b90600052602060002090601f016020900481019282620004b25760008555620004fe565b82601f10620004cd57805160ff1916838001178555620004fe565b82800160010185558215620004fe579182015b82811115620004fd578251825591602001919060010190620004e0565b5b5090506200050d9190620005df565b5090565b82805482825590600052602060002090810192821562000565579160200282015b82811115620005645782518290805190602001906200055392919062000480565b509160200191906001019062000532565b5b509050620005749190620005fe565b5090565b828054828255906000526020600020908101928215620005cc579160200282015b82811115620005cb578251829080519060200190620005ba92919062000480565b509160200191906001019062000599565b5b509050620005db9190620005fe565b5090565b5b80821115620005fa576000816000905550600101620005e0565b5090565b5b8082111562000622576000818162000618919062000626565b50600101620005ff565b5090565b508054620006349062000765565b6000825580601f1062000648575062000669565b601f016020900490600052602060002090810190620006689190620005df565b5b50565b6000815190506200067d81620007ca565b92915050565b6000815190506200069481620007e4565b92915050565b600081519050620006ab81620007fe565b92915050565b60008060008060808587031215620006c857600080fd5b6000620006d8878288016200066c565b9450506020620006eb878288016200066c565b9350506040620006fe8782880162000683565b925050606062000711878288016200069a565b91505092959194509250565b60006200072a826200073b565b9050919050565b6000819050919050565b600073ffffffffffffffffffffffffffffffffffffffff82169050919050565b6000819050919050565b600060028204905060018216806200077e57607f821691505b602082108114156200079557620007946200079b565b5b50919050565b7f4e487b7100000000000000000000000000000000000000000000000000000000600052602260045260246000fd5b620007d5816200071d565b8114620007e157600080fd5b50565b620007ef8162000731565b8114620007fb57600080fd5b50565b62000809816200075b565b81146200081557600080fd5b50565b60805160601c60a05160601c6152da6200084b600039600081816117670152612d0701526000612ccb01526152da6000f3fe6080604052600436106102045760003560e01c806371aee19311610118578063b88d4fde116100a0578063c87b56dd1161006f578063c87b56dd146107de578063d082e3811461081b578063e985e9c514610846578063efc81a8c14610883578063f2fde38b146108ae57610204565b8063b88d4fde14610710578063bd11f69d14610739578063c21bf36f14610776578063c68b49d1146107a157610204565b8063949d225d116100e7578063949d225d14610617578063955968d41461064257806395d89b411461067f5780639c1cd795146106aa578063a22cb465146106e757610204565b806371aee193146105495780638da5cb5b146105865780639201de55146105b157806394985ddd146105ee57610204565b806333af59891161019b578063624194c71161016a578063624194c7146104525780636352211e1461047b5780636dcee4ca146104b857806370a08231146104f5578063715018a61461053257610204565b806333af5989146103b75780633ccfd60b146103f457806342842e0e146103fe57806348e896ab1461042757610204565b8063219c0eee116101d7578063219c0eee146102d757806322881f881461031457806323b872dd1461035157806330d871c61461037a57610204565b806301ffc9a71461020957806306fdde0314610246578063081812fc14610271578063095ea7b3146102ae575b600080fd5b34801561021557600080fd5b50610230600480360381019061022b9190613876565b6108d7565b60405161023d919061413e565b60405180910390f35b34801561025257600080fd5b5061025b6109b9565b60405161026891906141e2565b60405180910390f35b34801561027d57600080fd5b5061029860048036038101906102939190613909565b610a4b565b6040516102a59190614099565b60405180910390f35b3480156102ba57600080fd5b506102d560048036038101906102d091906137ac565b610ad0565b005b3480156102e357600080fd5b506102fe60048036038101906102f99190613811565b610be8565b60405161030b9190614099565b60405180910390f35b34801561032057600080fd5b5061033b60048036038101906103369190613811565b610c1b565b60405161034891906144c4565b60405180910390f35b34801561035d57600080fd5b50610378600480360381019061037391906136a6565b610c33565b005b34801561038657600080fd5b506103a1600480360381019061039c91906138c8565b610c93565b6040516103ae91906141e2565b60405180910390f35b3480156103c357600080fd5b506103de60048036038101906103d99190613909565b610d26565b6040516103eb91906141e2565b60405180910390f35b6103fc610f12565b005b34801561040a57600080fd5b50610425600480360381019061042091906136a6565b610fde565b005b34801561043357600080fd5b5061043c610ffe565b60405161044991906144c4565b60405180910390f35b34801561045e57600080fd5b5061047960048036038101906104749190613909565b611004565b005b34801561048757600080fd5b506104a2600480360381019061049d9190613909565b6111a4565b6040516104af9190614099565b60405180910390f35b3480156104c457600080fd5b506104df60048036038101906104da9190613909565b611256565b6040516104ec91906141e2565b60405180910390f35b34801561050157600080fd5b5061051c60048036038101906105179190613641565b611352565b60405161052991906144c4565b60405180910390f35b34801561053e57600080fd5b5061054761140a565b005b34801561055557600080fd5b50610570600480360381019061056b91906138c8565b611492565b60405161057d91906141e2565b60405180910390f35b34801561059257600080fd5b5061059b6114e2565b6040516105a89190614099565b60405180910390f35b3480156105bd57600080fd5b506105d860048036038101906105d39190613811565b61150c565b6040516105e591906141e2565b60405180910390f35b3480156105fa57600080fd5b506106156004803603810190610610919061383a565b611765565b005b34801561062357600080fd5b5061062c611801565b60405161063991906144c4565b60405180910390f35b34801561064e57600080fd5b5061066960048036038101906106649190613909565b611807565b60405161067691906141e2565b60405180910390f35b34801561068b57600080fd5b506106946118b3565b6040516106a191906141e2565b60405180910390f35b3480156106b657600080fd5b506106d160048036038101906106cc9190613909565b611945565b6040516106de91906144c4565b60405180910390f35b3480156106f357600080fd5b5061070e60048036038101906107099190613770565b61195d565b005b34801561071c57600080fd5b50610737600480360381019061073291906136f5565b611ade565b005b34801561074557600080fd5b50610760600480360381019061075b9190613909565b611b40565b60405161076d91906141e2565b60405180910390f35b34801561078257600080fd5b5061078b611bec565b60405161079891906144c4565b60405180910390f35b3480156107ad57600080fd5b506107c860048036038101906107c39190613909565b611bf2565b6040516107d591906141e2565b60405180910390f35b3480156107ea57600080fd5b5061080560048036038101906108009190613909565b611db1565b60405161081291906141e2565b60405180910390f35b34801561082757600080fd5b50610830611f03565b60405161083d91906144c4565b60405180910390f35b34801561085257600080fd5b5061086d6004803603810190610868919061366a565b611f09565b60405161087a919061413e565b60405180910390f35b34801561088f57600080fd5b50610898611f9d565b6040516108a59190614159565b60405180910390f35b3480156108ba57600080fd5b506108d560048036038101906108d09190613641565b612067565b005b60007f80ac58cd000000000000000000000000000000000000000000000000000000007bffffffffffffffffffffffffffffffffffffffffffffffffffffffff1916827bffffffffffffffffffffffffffffffffffffffffffffffffffffffff191614806109a257507f5b5e139f000000000000000000000000000000000000000000000000000000007bffffffffffffffffffffffffffffffffffffffffffffffffffffffff1916827bffffffffffffffffffffffffffffffffffffffffffffffffffffffff1916145b806109b257506109b18261215f565b5b9050919050565b6060600080546109c8906147eb565b80601f01602080910402602001604051908101604052809291908181526020018280546109f4906147eb565b8015610a415780601f10610a1657610100808354040283529160200191610a41565b820191906000526020600020905b815481529060010190602001808311610a2457829003601f168201915b5050505050905090565b6000610a56826121c9565b610a95576040517f08c379a0000000000000000000000000000000000000000000000000000000008152600401610a8c906143e4565b60405180910390fd5b6004600083815260200190815260200160002060009054906101000a900473ffffffffffffffffffffffffffffffffffffffff169050919050565b6000610adb826111a4565b90508073ffffffffffffffffffffffffffffffffffffffff168373ffffffffffffffffffffffffffffffffffffffff161415610b4c576040517f08c379a0000000000000000000000000000000000000000000000000000000008152600401610b4390614484565b60405180910390fd5b8073ffffffffffffffffffffffffffffffffffffffff16610b6b612235565b73ffffffffffffffffffffffffffffffffffffffff161480610b9a5750610b9981610b94612235565b611f09565b5b610bd9576040517f08c379a0000000000000000000000000000000000000000000000000000000008152600401610bd090614304565b60405180910390fd5b610be3838361223d565b505050565b600a6020528060005260406000206000915054906101000a900473ffffffffffffffffffffffffffffffffffffffff1681565b600c6020528060005260406000206000915090505481565b610c44610c3e612235565b826122f6565b610c83576040517f08c379a0000000000000000000000000000000000000000000000000000000008152600401610c7a906144a4565b60405180910390fd5b610c8e8383836123d4565b505050565b606060006040518060400160405280601a81526020017f646174613a696d6167652f7376672b786d6c3b6261736536342c00000000000081525090506000610cf984604051602001610ce59190613f11565b604051602081830303815290604052612630565b90508181604051602001610d0e929190613f28565b60405160208183030381529060405292505050919050565b60606000600160105484610d3a91906148d5565b610d4491906145d2565b90506040518060400160405280600981526020017f3c7061746820643d270000000000000000000000000000000000000000000000815250915060005b81811015610e06576000610dcc8583601154610d9d91906145d2565b604051602001610dae9291906144df565b6040516020818303038152906040528051906020012060001c611bf2565b90508381604051602001610de1929190613f28565b6040516020818303038152906040529350508080610dfe9061484e565b915050610d81565b5060006013808054905085610e1b91906148d5565b81548110610e52577f4e487b7100000000000000000000000000000000000000000000000000000000600052603260045260246000fd5b906000526020600020018054610e67906147eb565b80601f0160208091040260200160405190810160405280929190818152602001828054610e93906147eb565b8015610ee05780601f10610eb557610100808354040283529160200191610ee0565b820191906000526020600020905b815481529060010190602001808311610ec357829003601f168201915b505050505090508281604051602001610efa929190613f4c565b60405160208183030381529060405292505050919050565b610f1a612235565b73ffffffffffffffffffffffffffffffffffffffff16610f386114e2565b73ffffffffffffffffffffffffffffffffffffffff1614610f8e576040517f08c379a0000000000000000000000000000000000000000000000000000000008152600401610f8590614404565b60405180910390fd5b610f966114e2565b73ffffffffffffffffffffffffffffffffffffffff166108fc479081150290604051600060405180830381858888f19350505050158015610fdb573d6000803e3d6000fd5b50565b610ff983838360405180602001604052806000815250611ade565b505050565b60105481565b600061100f82611db1565b511115611051576040517f08c379a0000000000000000000000000000000000000000000000000000000008152600401611048906142c4565b60405180910390fd5b8060095411611095576040517f08c379a000000000000000000000000000000000000000000000000000000000815260040161108c90614384565b60405180910390fd5b6000600b600083815260200190815260200160002054116110eb576040517f08c379a00000000000000000000000000000000000000000000000000000000081526004016110e290614264565b60405180910390fd5b6000600b6000838152602001908152602001600020549050600061110e82611256565b9050600061111b82610c93565b905061112f8461112a83611492565b6127ee565b837f15a6487b7915a7116ce2a61d43b17e9b47484b1931f3c79f2f3d139b307b38938360405161115f91906141e2565b60405180910390a27fb6342e866abaf3aa41db6e7e879e753cc4293f757d6c0dbf7b3f79f9b8b5fd1c8360405161119691906144c4565b60405180910390a150505050565b6000806002600084815260200190815260200160002060009054906101000a900473ffffffffffffffffffffffffffffffffffffffff169050600073ffffffffffffffffffffffffffffffffffffffff168173ffffffffffffffffffffffffffffffffffffffff16141561124d576040517f08c379a000000000000000000000000000000000000000000000000000000000815260040161124490614344565b60405180910390fd5b80915050919050565b606060006001600f548461126a91906148d5565b61127491906145d2565b9050611281601154612862565b61128c601154612862565b60405160200161129d929190614032565b604051602081830303815290604052915060005b818110156113295760006112ef85836040516020016112d19291906144df565b6040516020818303038152906040528051906020012060001c610d26565b90508381604051602001611304929190613f28565b60405160208183030381529060405293505080806113219061484e565b9150506112b1565b508160405160200161133b9190613fcd565b604051602081830303815290604052915050919050565b60008073ffffffffffffffffffffffffffffffffffffffff168273ffffffffffffffffffffffffffffffffffffffff1614156113c3576040517f08c379a00000000000000000000000000000000000000000000000000000000081526004016113ba90614324565b60405180910390fd5b600360008373ffffffffffffffffffffffffffffffffffffffff1673ffffffffffffffffffffffffffffffffffffffff168152602001908152602001600020549050919050565b611412612235565b73ffffffffffffffffffffffffffffffffffffffff166114306114e2565b73ffffffffffffffffffffffffffffffffffffffff1614611486576040517f08c379a000000000000000000000000000000000000000000000000000000000815260040161147d90614404565b60405180910390fd5b6114906000612a37565b565b60606114bc826040516020016114a89190613fef565b604051602081830303815290604052612630565b6040516020016114cc9190614077565b6040516020818303038152906040529050919050565b6000600860009054906101000a900473ffffffffffffffffffffffffffffffffffffffff16905090565b606060005b60208160ff161080156115895750600060f81b838260ff1660208110611560577f4e487b7100000000000000000000000000000000000000000000000000000000600052603260045260246000fd5b1a60f81b7effffffffffffffffffffffffffffffffffffffffffffffffffffffffffffff191614155b156115a157808061159990614897565b915050611511565b60008160ff1667ffffffffffffffff8111156115e6577f4e487b7100000000000000000000000000000000000000000000000000000000600052604160045260246000fd5b6040519080825280601f01601f1916602001820160405280156116185781602001600182028036833780820191505090505b509050600091505b60208260ff161080156116985750600060f81b848360ff166020811061166f577f4e487b7100000000000000000000000000000000000000000000000000000000600052603260045260246000fd5b1a60f81b7effffffffffffffffffffffffffffffffffffffffffffffffffffffffffffff191614155b1561175b57838260ff16602081106116d9577f4e487b7100000000000000000000000000000000000000000000000000000000600052603260045260246000fd5b1a60f81b818360ff1681518110611719577f4e487b7100000000000000000000000000000000000000000000000000000000600052603260045260246000fd5b60200101907effffffffffffffffffffffffffffffffffffffffffffffffffffffffffffff1916908160001a905350818061175390614897565b925050611620565b8092505050919050565b7f000000000000000000000000000000000000000000000000000000000000000073ffffffffffffffffffffffffffffffffffffffff163373ffffffffffffffffffffffffffffffffffffffff16146117f3576040517f08c379a00000000000000000000000000000000000000000000000000000000081526004016117ea90614464565b60405180910390fd5b6117fd8282612afd565b5050565b60115481565b6012818154811061181757600080fd5b906000526020600020016000915090508054611832906147eb565b80601f016020809104026020016040519081016040528092919081815260200182805461185e906147eb565b80156118ab5780601f10611880576101008083540402835291602001916118ab565b820191906000526020600020905b81548152906001019060200180831161188e57829003601f168201915b505050505081565b6060600180546118c2906147eb565b80601f01602080910402602001604051908101604052809291908181526020018280546118ee906147eb565b801561193b5780601f106119105761010080835404028352916020019161193b565b820191906000526020600020905b81548152906001019060200180831161191e57829003601f168201915b5050505050905090565b600b6020528060005260406000206000915090505481565b611965612235565b73ffffffffffffffffffffffffffffffffffffffff168273ffffffffffffffffffffffffffffffffffffffff1614156119d3576040517f08c379a00000000000000000000000000000000000000000000000000000000081526004016119ca906142a4565b60405180910390fd5b80600560006119e0612235565b73ffffffffffffffffffffffffffffffffffffffff1673ffffffffffffffffffffffffffffffffffffffff16815260200190815260200160002060008473ffffffffffffffffffffffffffffffffffffffff1673ffffffffffffffffffffffffffffffffffffffff16815260200190815260200160002060006101000a81548160ff0219169083151502179055508173ffffffffffffffffffffffffffffffffffffffff16611a8d612235565b73ffffffffffffffffffffffffffffffffffffffff167f17307eab39ab6107e8899845ad3d59bd9653f200f220920489ca2b5937696c3183604051611ad2919061413e565b60405180910390a35050565b611aef611ae9612235565b836122f6565b611b2e576040517f08c379a0000000000000000000000000000000000000000000000000000000008152600401611b25906144a4565b60405180910390fd5b611b3a84848484612bad565b50505050565b60138181548110611b5057600080fd5b906000526020600020016000915090508054611b6b906147eb565b80601f0160208091040260200160405190810160405280929190818152602001828054611b97906147eb565b8015611be45780601f10611bb957610100808354040283529160200191611be4565b820191906000526020600020905b815481529060010190602001808311611bc757829003601f168201915b505050505081565b600f5481565b60606012808054905083611c0691906148d5565b81548110611c3d577f4e487b7100000000000000000000000000000000000000000000000000000000600052603260045260246000fd5b906000526020600020018054611c52906147eb565b80601f0160208091040260200160405190810160405280929190818152602001828054611c7e906147eb565b8015611ccb5780601f10611ca057610100808354040283529160200191611ccb565b820191906000526020600020905b815481529060010190602001808311611cae57829003601f168201915b505050505090506000601154836002601154611ce79190614690565b604051602001611cf89291906144df565b6040516020818303038152906040528051906020012060001c611d1b91906148d5565b905060006011548460016002601154611d349190614690565b611d3e91906145d2565b604051602001611d4f9291906144df565b6040516020818303038152906040528051906020012060001c611d7291906148d5565b905082611d7e83612862565b611d8783612862565b604051602001611d9993929190613f86565b60405160208183030381529060405292505050919050565b6060611dbc826121c9565b611dfb576040517f08c379a0000000000000000000000000000000000000000000000000000000008152600401611df2906143c4565b60405180910390fd5b6000600660008481526020019081526020016000208054611e1b906147eb565b80601f0160208091040260200160405190810160405280929190818152602001828054611e47906147eb565b8015611e945780601f10611e6957610100808354040283529160200191611e94565b820191906000526020600020905b815481529060010190602001808311611e7757829003601f168201915b505050505090506000611ea5612c09565b9050600081511415611ebb578192505050611efe565b600082511115611ef0578082604051602001611ed8929190613f28565b60405160208183030381529060405292505050611efe565b611ef984612c20565b925050505b919050565b60095481565b6000600560008473ffffffffffffffffffffffffffffffffffffffff1673ffffffffffffffffffffffffffffffffffffffff16815260200190815260200160002060008373ffffffffffffffffffffffffffffffffffffffff1673ffffffffffffffffffffffffffffffffffffffff16815260200190815260200160002060009054906101000a900460ff16905092915050565b6000611fad600d54600e54612cc7565b905033600a600083815260200190815260200160002060006101000a81548173ffffffffffffffffffffffffffffffffffffffff021916908373ffffffffffffffffffffffffffffffffffffffff1602179055506000600954905080600c600084815260200190815260200160002081905550600160095461202f91906145d2565b60098190555080827fb97343f1f2afc4959f818046ccae28fd7b05fcd2b7a7dc651cbb52a096cae03560405160405180910390a35090565b61206f612235565b73ffffffffffffffffffffffffffffffffffffffff1661208d6114e2565b73ffffffffffffffffffffffffffffffffffffffff16146120e3576040517f08c379a00000000000000000000000000000000000000000000000000000000081526004016120da90614404565b60405180910390fd5b600073ffffffffffffffffffffffffffffffffffffffff168173ffffffffffffffffffffffffffffffffffffffff161415612153576040517f08c379a000000000000000000000000000000000000000000000000000000000815260040161214a90614224565b60405180910390fd5b61215c81612a37565b50565b60007f01ffc9a7000000000000000000000000000000000000000000000000000000007bffffffffffffffffffffffffffffffffffffffffffffffffffffffff1916827bffffffffffffffffffffffffffffffffffffffffffffffffffffffff1916149050919050565b60008073ffffffffffffffffffffffffffffffffffffffff166002600084815260200190815260200160002060009054906101000a900473ffffffffffffffffffffffffffffffffffffffff1673ffffffffffffffffffffffffffffffffffffffff1614159050919050565b600033905090565b816004600083815260200190815260200160002060006101000a81548173ffffffffffffffffffffffffffffffffffffffff021916908373ffffffffffffffffffffffffffffffffffffffff160217905550808273ffffffffffffffffffffffffffffffffffffffff166122b0836111a4565b73ffffffffffffffffffffffffffffffffffffffff167f8c5be1e5ebec7d5bd14f71427d1e84f3dd0314c0f7b2291e5b200ac8c7c3b92560405160405180910390a45050565b6000612301826121c9565b612340576040517f08c379a0000000000000000000000000000000000000000000000000000000008152600401612337906142e4565b60405180910390fd5b600061234b836111a4565b90508073ffffffffffffffffffffffffffffffffffffffff168473ffffffffffffffffffffffffffffffffffffffff1614806123ba57508373ffffffffffffffffffffffffffffffffffffffff166123a284610a4b565b73ffffffffffffffffffffffffffffffffffffffff16145b806123cb57506123ca8185611f09565b5b91505092915050565b8273ffffffffffffffffffffffffffffffffffffffff166123f4826111a4565b73ffffffffffffffffffffffffffffffffffffffff161461244a576040517f08c379a000000000000000000000000000000000000000000000000000000000815260040161244190614424565b60405180910390fd5b600073ffffffffffffffffffffffffffffffffffffffff168273ffffffffffffffffffffffffffffffffffffffff1614156124ba576040517f08c379a00000000000000000000000000000000000000000000000000000000081526004016124b190614284565b60405180910390fd5b6124c5838383612e29565b6124d060008261223d565b6001600360008573ffffffffffffffffffffffffffffffffffffffff1673ffffffffffffffffffffffffffffffffffffffff168152602001908152602001600020600082825461252091906146ea565b925050819055506001600360008473ffffffffffffffffffffffffffffffffffffffff1673ffffffffffffffffffffffffffffffffffffffff168152602001908152602001600020600082825461257791906145d2565b92505081905550816002600083815260200190815260200160002060006101000a81548173ffffffffffffffffffffffffffffffffffffffff021916908373ffffffffffffffffffffffffffffffffffffffff160217905550808273ffffffffffffffffffffffffffffffffffffffff168473ffffffffffffffffffffffffffffffffffffffff167fddf252ad1be2c89b69c2b068fc378daa952ba7f163c4a11628f55a4df523b3ef60405160405180910390a4505050565b6060600082519050600081141561265957604051806020016040528060008152509150506127e9565b6000600360028361266a91906145d2565b612674919061465f565b60046126809190614690565b9050600060208261269191906145d2565b67ffffffffffffffff8111156126d0577f4e487b7100000000000000000000000000000000000000000000000000000000600052604160045260246000fd5b6040519080825280601f01601f1916602001820160405280156127025781602001600182028036833780820191505090505b5090506000604051806060016040528060408152602001615265604091399050600181016020830160005b868110156127a65760038101905062ffffff818a015116603f8160121c168401518060081b905060ff603f83600c1c1686015116810190508060081b905060ff603f8360061c1686015116810190508060081b905060ff603f831686015116810190508060e01b9050808452600484019350505061272d565b5060038606600181146127c057600281146127d0576127db565b613d3d60f01b60028303526127db565b603d60f81b60018303525b508484525050819450505050505b919050565b6127f7826121c9565b612836576040517f08c379a000000000000000000000000000000000000000000000000000000000815260040161282d90614364565b60405180910390fd5b8060066000848152602001908152602001600020908051906020019061285d92919061343b565b505050565b606060008214156128aa576040518060400160405280600181526020017f30000000000000000000000000000000000000000000000000000000000000008152509050612a32565b600082905060005b600082146128dc5780806128c59061484e565b915050600a826128d5919061465f565b91506128b2565b60008167ffffffffffffffff81111561291e577f4e487b7100000000000000000000000000000000000000000000000000000000600052604160045260246000fd5b6040519080825280601f01601f1916602001820160405280156129505781602001600182028036833780820191505090505b50905060008290505b60008614612a2a5760018161296e91906146ea565b90506000600a8088612980919061465f565b61298a9190614690565b8761299591906146ea565b60306129a19190614628565b905060008160f81b9050808484815181106129e5577f4e487b7100000000000000000000000000000000000000000000000000000000600052603260045260246000fd5b60200101907effffffffffffffffffffffffffffffffffffffffffffffffffffffffffffff1916908160001a905350600a88612a21919061465f565b97505050612959565b819450505050505b919050565b6000600860009054906101000a900473ffffffffffffffffffffffffffffffffffffffff16905081600860006101000a81548173ffffffffffffffffffffffffffffffffffffffff021916908373ffffffffffffffffffffffffffffffffffffffff1602179055508173ffffffffffffffffffffffffffffffffffffffff168173ffffffffffffffffffffffffffffffffffffffff167f8be0079c531659141344cd1fd0a4f28419497f9722a3daafe3b4186f6b6457e060405160405180910390a35050565b6000600a600084815260200190815260200160002060009054906101000a900473ffffffffffffffffffffffffffffffffffffffff1690506000600c6000858152602001908152602001600020549050612b578282612e2e565b82600b600083815260200190815260200160002081905550807faad5362ce528ed941024b95d4c18dfd49b8503e1f586a5c353631d98c2af41b784604051612b9f91906144c4565b60405180910390a250505050565b612bb88484846123d4565b612bc484848484612e4c565b612c03576040517f08c379a0000000000000000000000000000000000000000000000000000000008152600401612bfa90614204565b60405180910390fd5b50505050565b606060405180602001604052806000815250905090565b6060612c2b826121c9565b612c6a576040517f08c379a0000000000000000000000000000000000000000000000000000000008152600401612c6190614444565b60405180910390fd5b6000612c74612c09565b90506000815111612c945760405180602001604052806000815250612cbf565b80612c9e84612fe3565b604051602001612caf929190613f28565b6040516020818303038152906040525b915050919050565b60007f000000000000000000000000000000000000000000000000000000000000000073ffffffffffffffffffffffffffffffffffffffff16634000aea07f000000000000000000000000000000000000000000000000000000000000000084866000604051602001612d3b929190614174565b6040516020818303038152906040526040518463ffffffff1660e01b8152600401612d6893929190614100565b602060405180830381600087803b158015612d8257600080fd5b505af1158015612d96573d6000803e3d6000fd5b505050506040513d601f19601f82011682018060405250810190612dba91906137e8565b506000612ddd846000306007600089815260200190815260200160002054613190565b905060016007600086815260200190815260200160002054612dff91906145d2565b6007600086815260200190815260200160002081905550612e2084826131cc565b91505092915050565b505050565b612e488282604051806020016040528060008152506131ff565b5050565b6000612e6d8473ffffffffffffffffffffffffffffffffffffffff1661325a565b15612fd6578373ffffffffffffffffffffffffffffffffffffffff1663150b7a02612e96612235565b8786866040518563ffffffff1660e01b8152600401612eb894939291906140b4565b602060405180830381600087803b158015612ed257600080fd5b505af1925050508015612f0357506040513d601f19601f82011682018060405250810190612f00919061389f565b60015b612f86573d8060008114612f33576040519150601f19603f3d011682016040523d82523d6000602084013e612f38565b606091505b50600081511415612f7e576040517f08c379a0000000000000000000000000000000000000000000000000000000008152600401612f7590614204565b60405180910390fd5b805181602001fd5b63150b7a0260e01b7bffffffffffffffffffffffffffffffffffffffffffffffffffffffff1916817bffffffffffffffffffffffffffffffffffffffffffffffffffffffff191614915050612fdb565b600190505b949350505050565b6060600082141561302b576040518060400160405280600181526020017f3000000000000000000000000000000000000000000000000000000000000000815250905061318b565b600082905060005b6000821461305d5780806130469061484e565b915050600a82613056919061465f565b9150613033565b60008167ffffffffffffffff81111561309f577f4e487b7100000000000000000000000000000000000000000000000000000000600052604160045260246000fd5b6040519080825280601f01601f1916602001820160405280156130d15781602001600182028036833780820191505090505b5090505b60008514613184576001826130ea91906146ea565b9150600a856130f991906148d5565b603061310591906145d2565b60f81b818381518110613141577f4e487b7100000000000000000000000000000000000000000000000000000000600052603260045260246000fd5b60200101907effffffffffffffffffffffffffffffffffffffffffffffffffffffffffffff1916908160001a905350600a8561317d919061465f565b94506130d5565b8093505050505b919050565b6000848484846040516020016131a9949392919061419d565b6040516020818303038152906040528051906020012060001c9050949350505050565b600082826040516020016131e1929190613ee5565b60405160208183030381529060405280519060200120905092915050565b613209838361326d565b6132166000848484612e4c565b613255576040517f08c379a000000000000000000000000000000000000000000000000000000000815260040161324c90614204565b60405180910390fd5b505050565b600080823b905060008111915050919050565b600073ffffffffffffffffffffffffffffffffffffffff168273ffffffffffffffffffffffffffffffffffffffff1614156132dd576040517f08c379a00000000000000000000000000000000000000000000000000000000081526004016132d4906143a4565b60405180910390fd5b6132e6816121c9565b15613326576040517f08c379a000000000000000000000000000000000000000000000000000000000815260040161331d90614244565b60405180910390fd5b61333260008383612e29565b6001600360008473ffffffffffffffffffffffffffffffffffffffff1673ffffffffffffffffffffffffffffffffffffffff168152602001908152602001600020600082825461338291906145d2565b92505081905550816002600083815260200190815260200160002060006101000a81548173ffffffffffffffffffffffffffffffffffffffff021916908373ffffffffffffffffffffffffffffffffffffffff160217905550808273ffffffffffffffffffffffffffffffffffffffff16600073ffffffffffffffffffffffffffffffffffffffff167fddf252ad1be2c89b69c2b068fc378daa952ba7f163c4a11628f55a4df523b3ef60405160405180910390a45050565b828054613447906147eb565b90600052602060002090601f01602090048101928261346957600085556134b0565b82601f1061348257805160ff19168380011785556134b0565b828001600101855582156134b0579182015b828111156134af578251825591602001919060010190613494565b5b5090506134bd91906134c1565b5090565b5b808211156134da5760008160009055506001016134c2565b5090565b60006134f16134ec8461452d565b614508565b90508281526020810184848401111561350957600080fd5b6135148482856147a9565b509392505050565b600061352f61352a8461455e565b614508565b90508281526020810184848401111561354757600080fd5b6135528482856147a9565b509392505050565b600081359050613569816151f1565b92915050565b60008135905061357e81615208565b92915050565b60008151905061359381615208565b92915050565b6000813590506135a88161521f565b92915050565b6000813590506135bd81615236565b92915050565b6000815190506135d281615236565b92915050565b600082601f8301126135e957600080fd5b81356135f98482602086016134de565b91505092915050565b600082601f83011261361357600080fd5b813561362384826020860161351c565b91505092915050565b60008135905061363b8161524d565b92915050565b60006020828403121561365357600080fd5b60006136618482850161355a565b91505092915050565b6000806040838503121561367d57600080fd5b600061368b8582860161355a565b925050602061369c8582860161355a565b9150509250929050565b6000806000606084860312156136bb57600080fd5b60006136c98682870161355a565b93505060206136da8682870161355a565b92505060406136eb8682870161362c565b9150509250925092565b6000806000806080858703121561370b57600080fd5b60006137198782880161355a565b945050602061372a8782880161355a565b935050604061373b8782880161362c565b925050606085013567ffffffffffffffff81111561375857600080fd5b613764878288016135d8565b91505092959194509250565b6000806040838503121561378357600080fd5b60006137918582860161355a565b92505060206137a28582860161356f565b9150509250929050565b600080604083850312156137bf57600080fd5b60006137cd8582860161355a565b92505060206137de8582860161362c565b9150509250929050565b6000602082840312156137fa57600080fd5b600061380884828501613584565b91505092915050565b60006020828403121561382357600080fd5b600061383184828501613599565b91505092915050565b6000806040838503121561384d57600080fd5b600061385b85828601613599565b925050602061386c8582860161362c565b9150509250929050565b60006020828403121561388857600080fd5b6000613896848285016135ae565b91505092915050565b6000602082840312156138b157600080fd5b60006138bf848285016135c3565b91505092915050565b6000602082840312156138da57600080fd5b600082013567ffffffffffffffff8111156138f457600080fd5b61390084828501613602565b91505092915050565b60006020828403121561391b57600080fd5b60006139298482850161362c565b91505092915050565b61393b8161471e565b82525050565b61394a81614730565b82525050565b6139598161473c565b82525050565b61397061396b8261473c565b6148c1565b82525050565b60006139818261458f565b61398b81856145a5565b935061399b8185602086016147b8565b6139a4816149c2565b840191505092915050565b60006139ba8261459a565b6139c481856145b6565b93506139d48185602086016147b8565b6139dd816149c2565b840191505092915050565b60006139f38261459a565b6139fd81856145c7565b9350613a0d8185602086016147b8565b80840191505092915050565b6000613a266009836145c7565b9150613a31826149d3565b600982019050919050565b6000613a496032836145b6565b9150613a54826149fc565b604082019050919050565b6000613a6c6026836145b6565b9150613a7782614a4b565b604082019050919050565b6000613a8f601c836145b6565b9150613a9a82614a9a565b602082019050919050565b6000613ab2602f836145b6565b9150613abd82614ac3565b604082019050919050565b6000613ad56024836145b6565b9150613ae082614b12565b604082019050919050565b6000613af86019836145b6565b9150613b0382614b61565b602082019050919050565b6000613b1b6018836145b6565b9150613b2682614b8a565b602082019050919050565b6000613b3e602c836145b6565b9150613b4982614bb3565b604082019050919050565b6000613b61601d836145c7565b9150613b6c82614c02565b601d82019050919050565b6000613b846001836145c7565b9150613b8f82614c2b565b600182019050919050565b6000613ba76003836145c7565b9150613bb282614c54565b600382019050919050565b6000613bca6007836145c7565b9150613bd582614c7d565b600782019050919050565b6000613bed6038836145b6565b9150613bf882614ca6565b604082019050919050565b6000613c10602a836145b6565b9150613c1b82614cf5565b604082019050919050565b6000613c336029836145b6565b9150613c3e82614d44565b604082019050919050565b6000613c56602e836145b6565b9150613c6182614d93565b604082019050919050565b6000613c796020836145b6565b9150613c8482614de2565b602082019050919050565b6000613c9c6002836145c7565b9150613ca782614e0b565b600282019050919050565b6000613cbf6020836145b6565b9150613cca82614e34565b602082019050919050565b6000613ce26031836145b6565b9150613ced82614e5d565b604082019050919050565b6000613d05602c836145b6565b9150613d1082614eac565b604082019050919050565b6000613d286020836145b6565b9150613d3382614efb565b602082019050919050565b6000613d4b6029836145b6565b9150613d5682614f24565b604082019050919050565b6000613d6e6030836145c7565b9150613d7982614f73565b603082019050919050565b6000613d91602f836145b6565b9150613d9c82614fc2565b604082019050919050565b6000613db4601f836145b6565b9150613dbf82615011565b602082019050919050565b6000613dd76043836145c7565b9150613de28261503a565b604382019050919050565b6000613dfa6021836145b6565b9150613e05826150af565b604082019050919050565b6000613e1d601d836145c7565b9150613e28826150fe565b601d82019050919050565b6000613e406031836145b6565b9150613e4b82615127565b604082019050919050565b6000613e636002836145c7565b9150613e6e82615176565b600282019050919050565b6000613e866006836145c7565b9150613e918261519f565b600682019050919050565b6000613ea96009836145c7565b9150613eb4826151c8565b600982019050919050565b613ec881614792565b82525050565b613edf613eda82614792565b6148cb565b82525050565b6000613ef1828561395f565b602082019150613f018284613ece565b6020820191508190509392505050565b6000613f1d82846139e8565b915081905092915050565b6000613f3482856139e8565b9150613f4082846139e8565b91508190509392505050565b6000613f5882856139e8565b9150613f6382613b54565b9150613f6f82846139e8565b9150613f7a82613b9a565b91508190509392505050565b6000613f9282866139e8565b9150613f9d82613b77565b9150613fa982856139e8565b9150613fb482613b77565b9150613fc082846139e8565b9150819050949350505050565b6000613fd982846139e8565b9150613fe482613e79565b915081905092915050565b6000613ffa82613a19565b915061400582613bbd565b915061401082613dca565b915061401c82846139e8565b915061402782613c8f565b915081905092915050565b600061403d82613d61565b915061404982856139e8565b915061405482613e9c565b915061406082846139e8565b915061406b82613e56565b91508190509392505050565b600061408282613e10565b915061408e82846139e8565b915081905092915050565b60006020820190506140ae6000830184613932565b92915050565b60006080820190506140c96000830187613932565b6140d66020830186613932565b6140e36040830185613ebf565b81810360608301526140f58184613976565b905095945050505050565b60006060820190506141156000830186613932565b6141226020830185613ebf565b81810360408301526141348184613976565b9050949350505050565b60006020820190506141536000830184613941565b92915050565b600060208201905061416e6000830184613950565b92915050565b60006040820190506141896000830185613950565b6141966020830184613ebf565b9392505050565b60006080820190506141b26000830187613950565b6141bf6020830186613ebf565b6141cc6040830185613932565b6141d96060830184613ebf565b95945050505050565b600060208201905081810360008301526141fc81846139af565b905092915050565b6000602082019050818103600083015261421d81613a3c565b9050919050565b6000602082019050818103600083015261423d81613a5f565b9050919050565b6000602082019050818103600083015261425d81613a82565b9050919050565b6000602082019050818103600083015261427d81613aa5565b9050919050565b6000602082019050818103600083015261429d81613ac8565b9050919050565b600060208201905081810360008301526142bd81613aeb565b9050919050565b600060208201905081810360008301526142dd81613b0e565b9050919050565b600060208201905081810360008301526142fd81613b31565b9050919050565b6000602082019050818103600083015261431d81613be0565b9050919050565b6000602082019050818103600083015261433d81613c03565b9050919050565b6000602082019050818103600083015261435d81613c26565b9050919050565b6000602082019050818103600083015261437d81613c49565b9050919050565b6000602082019050818103600083015261439d81613c6c565b9050919050565b600060208201905081810360008301526143bd81613cb2565b9050919050565b600060208201905081810360008301526143dd81613cd5565b9050919050565b600060208201905081810360008301526143fd81613cf8565b9050919050565b6000602082019050818103600083015261441d81613d1b565b9050919050565b6000602082019050818103600083015261443d81613d3e565b9050919050565b6000602082019050818103600083015261445d81613d84565b9050919050565b6000602082019050818103600083015261447d81613da7565b9050919050565b6000602082019050818103600083015261449d81613ded565b9050919050565b600060208201905081810360008301526144bd81613e33565b9050919050565b60006020820190506144d96000830184613ebf565b92915050565b60006040820190506144f46000830185613ebf565b6145016020830184613ebf565b9392505050565b6000614512614523565b905061451e828261481d565b919050565b6000604051905090565b600067ffffffffffffffff82111561454857614547614993565b5b614551826149c2565b9050602081019050919050565b600067ffffffffffffffff82111561457957614578614993565b5b614582826149c2565b9050602081019050919050565b600081519050919050565b600081519050919050565b600082825260208201905092915050565b600082825260208201905092915050565b600081905092915050565b60006145dd82614792565b91506145e883614792565b9250827fffffffffffffffffffffffffffffffffffffffffffffffffffffffffffffffff0382111561461d5761461c614906565b5b828201905092915050565b60006146338261479c565b915061463e8361479c565b92508260ff0382111561465457614653614906565b5b828201905092915050565b600061466a82614792565b915061467583614792565b92508261468557614684614935565b5b828204905092915050565b600061469b82614792565b91506146a683614792565b9250817fffffffffffffffffffffffffffffffffffffffffffffffffffffffffffffffff04831182151516156146df576146de614906565b5b828202905092915050565b60006146f582614792565b915061470083614792565b92508282101561471357614712614906565b5b828203905092915050565b600061472982614772565b9050919050565b60008115159050919050565b6000819050919050565b60007fffffffff0000000000000000000000000000000000000000000000000000000082169050919050565b600073ffffffffffffffffffffffffffffffffffffffff82169050919050565b6000819050919050565b600060ff82169050919050565b82818337600083830152505050565b60005b838110156147d65780820151818401526020810190506147bb565b838111156147e5576000848401525b50505050565b6000600282049050600182168061480357607f821691505b6020821081141561481757614816614964565b5b50919050565b614826826149c2565b810181811067ffffffffffffffff8211171561484557614844614993565b5b80604052505050565b600061485982614792565b91507fffffffffffffffffffffffffffffffffffffffffffffffffffffffffffffffff82141561488c5761488b614906565b5b600182019050919050565b60006148a28261479c565b915060ff8214156148b6576148b5614906565b5b600182019050919050565b6000819050919050565b6000819050919050565b60006148e082614792565b91506148eb83614792565b9250826148fb576148fa614935565b5b828206905092915050565b7f4e487b7100000000000000000000000000000000000000000000000000000000600052601160045260246000fd5b7f4e487b7100000000000000000000000000000000000000000000000000000000600052601260045260246000fd5b7f4e487b7100000000000000000000000000000000000000000000000000000000600052602260045260246000fd5b7f4e487b7100000000000000000000000000000000000000000000000000000000600052604160045260246000fd5b6000601f19601f8301169050919050565b7f7b226e616d65223a220000000000000000000000000000000000000000000000600082015250565b7f4552433732313a207472616e7366657220746f206e6f6e20455243373231526560008201527f63656976657220696d706c656d656e7465720000000000000000000000000000602082015250565b7f4f776e61626c653a206e6577206f776e657220697320746865207a65726f206160008201527f6464726573730000000000000000000000000000000000000000000000000000602082015250565b7f4552433732313a20746f6b656e20616c7265616479206d696e74656400000000600082015250565b7f4e65656420746f207761697420666f722074686520436861696e6c696e6b206e60008201527f6f646520746f20726573706f6e64210000000000000000000000000000000000602082015250565b7f4552433732313a207472616e7366657220746f20746865207a65726f2061646460008201527f7265737300000000000000000000000000000000000000000000000000000000602082015250565b7f4552433732313a20617070726f766520746f2063616c6c657200000000000000600082015250565b7f746f6b656e55524920697320616c726561647920736574210000000000000000600082015250565b7f4552433732313a206f70657261746f7220717565727920666f72206e6f6e657860008201527f697374656e7420746f6b656e0000000000000000000000000000000000000000602082015250565b7f272066696c6c3d277472616e73706172656e7427207374726f6b653d27000000600082015250565b7f2000000000000000000000000000000000000000000000000000000000000000600082015250565b7f272f3e0000000000000000000000000000000000000000000000000000000000600082015250565b7f535647204e465400000000000000000000000000000000000000000000000000600082015250565b7f4552433732313a20617070726f76652063616c6c6572206973206e6f74206f7760008201527f6e6572206e6f7220617070726f76656420666f7220616c6c0000000000000000602082015250565b7f4552433732313a2062616c616e636520717565727920666f7220746865207a6560008201527f726f206164647265737300000000000000000000000000000000000000000000602082015250565b7f4552433732313a206f776e657220717565727920666f72206e6f6e657869737460008201527f656e7420746f6b656e0000000000000000000000000000000000000000000000602082015250565b7f45524337323155524953746f726167653a2055524920736574206f66206e6f6e60008201527f6578697374656e7420746f6b656e000000000000000000000000000000000000602082015250565b7f546f6b656e496420686173206e6f74206265656e206d696e7465642079657421600082015250565b7f227d000000000000000000000000000000000000000000000000000000000000600082015250565b7f4552433732313a206d696e7420746f20746865207a65726f2061646472657373600082015250565b7f45524337323155524953746f726167653a2055524920717565727920666f722060008201527f6e6f6e6578697374656e7420746f6b656e000000000000000000000000000000602082015250565b7f4552433732313a20617070726f76656420717565727920666f72206e6f6e657860008201527f697374656e7420746f6b656e0000000000000000000000000000000000000000602082015250565b7f4f776e61626c653a2063616c6c6572206973206e6f7420746865206f776e6572600082015250565b7f4552433732313a207472616e73666572206f6620746f6b656e2074686174206960008201527f73206e6f74206f776e0000000000000000000000000000000000000000000000602082015250565b7f3c73766720786d6c6e733d27687474703a2f2f7777772e77332e6f72672f323060008201527f30302f73766727206865696768743d2700000000000000000000000000000000602082015250565b7f4552433732314d657461646174613a2055524920717565727920666f72206e6f60008201527f6e6578697374656e7420746f6b656e0000000000000000000000000000000000602082015250565b7f4f6e6c7920565246436f6f7264696e61746f722063616e2066756c66696c6c00600082015250565b7f222c20226465736372697074696f6e223a22416e204e4654206261736564206f60008201527f6e2053564721222c202261747472696275746573223a22222c2022696d61676560208201527f223a220000000000000000000000000000000000000000000000000000000000604082015250565b7f4552433732313a20617070726f76616c20746f2063757272656e74206f776e6560008201527f7200000000000000000000000000000000000000000000000000000000000000602082015250565b7f646174613a6170706c69636174696f6e2f6a736f6e3b6261736536342c000000600082015250565b7f4552433732313a207472616e736665722063616c6c6572206973206e6f74206f60008201527f776e6572206e6f7220617070726f766564000000000000000000000000000000602082015250565b7f273e000000000000000000000000000000000000000000000000000000000000600082015250565b7f3c2f7376673e0000000000000000000000000000000000000000000000000000600082015250565b7f272077696474683d270000000000000000000000000000000000000000000000600082015250565b6151fa8161471e565b811461520557600080fd5b50565b61521181614730565b811461521c57600080fd5b50565b6152288161473c565b811461523357600080fd5b50565b61523f81614746565b811461524a57600080fd5b50565b61525681614792565b811461526157600080fd5b5056fe4142434445464748494a4b4c4d4e4f505152535455565758595a6162636465666768696a6b6c6d6e6f707172737475767778797a303132333435363738392b2fa26469706673582212209378950cc304b00435a011b73d25c94164d4e2ce9530531672d26e999c784eeb64736f6c63430008020033",
  "devdoc": {
    "kind": "dev",
    "methods": {
      "approve(address,uint256)": {
        "details": "See {IERC721-approve}."
      },
      "balanceOf(address)": {
        "details": "See {IERC721-balanceOf}."
      },
      "getApproved(uint256)": {
        "details": "See {IERC721-getApproved}."
      },
      "isApprovedForAll(address,address)": {
        "details": "See {IERC721-isApprovedForAll}."
      },
      "name()": {
        "details": "See {IERC721Metadata-name}."
      },
      "owner()": {
        "details": "Returns the address of the current owner."
      },
      "ownerOf(uint256)": {
        "details": "See {IERC721-ownerOf}."
      },
      "renounceOwnership()": {
        "details": "Leaves the contract without owner. It will not be possible to call `onlyOwner` functions anymore. Can only be called by the current owner. NOTE: Renouncing ownership will leave the contract without an owner, thereby removing any functionality that is only available to the owner."
      },
      "safeTransferFrom(address,address,uint256)": {
        "details": "See {IERC721-safeTransferFrom}."
      },
      "safeTransferFrom(address,address,uint256,bytes)": {
        "details": "See {IERC721-safeTransferFrom}."
      },
      "setApprovalForAll(address,bool)": {
        "details": "See {IERC721-setApprovalForAll}."
      },
      "supportsInterface(bytes4)": {
        "details": "See {IERC165-supportsInterface}."
      },
      "symbol()": {
        "details": "See {IERC721Metadata-symbol}."
      },
      "tokenURI(uint256)": {
        "details": "See {IERC721Metadata-tokenURI}."
      },
      "transferFrom(address,address,uint256)": {
        "details": "See {IERC721-transferFrom}."
      },
      "transferOwnership(address)": {
        "details": "Transfers ownership of the contract to a new account (`newOwner`). Can only be called by the current owner."
      }
    },
    "version": 1
  },
  "userdoc": {
    "kind": "user",
    "methods": {},
    "version": 1
  },
  "storageLayout": {
    "storage": [
      {
        "astId": 396,
        "contract": "contracts/RandomSVG.sol:RandomSVG",
        "label": "_name",
        "offset": 0,
        "slot": "0",
        "type": "t_string_storage"
      },
      {
        "astId": 398,
        "contract": "contracts/RandomSVG.sol:RandomSVG",
        "label": "_symbol",
        "offset": 0,
        "slot": "1",
        "type": "t_string_storage"
      },
      {
        "astId": 402,
        "contract": "contracts/RandomSVG.sol:RandomSVG",
        "label": "_owners",
        "offset": 0,
        "slot": "2",
        "type": "t_mapping(t_uint256,t_address)"
      },
      {
        "astId": 406,
        "contract": "contracts/RandomSVG.sol:RandomSVG",
        "label": "_balances",
        "offset": 0,
        "slot": "3",
        "type": "t_mapping(t_address,t_uint256)"
      },
      {
        "astId": 410,
        "contract": "contracts/RandomSVG.sol:RandomSVG",
        "label": "_tokenApprovals",
        "offset": 0,
        "slot": "4",
        "type": "t_mapping(t_uint256,t_address)"
      },
      {
        "astId": 416,
        "contract": "contracts/RandomSVG.sol:RandomSVG",
        "label": "_operatorApprovals",
        "offset": 0,
        "slot": "5",
        "type": "t_mapping(t_address,t_mapping(t_address,t_bool))"
      },
      {
        "astId": 1333,
        "contract": "contracts/RandomSVG.sol:RandomSVG",
        "label": "_tokenURIs",
        "offset": 0,
        "slot": "6",
        "type": "t_mapping(t_uint256,t_string_storage)"
      },
      {
        "astId": 80,
        "contract": "contracts/RandomSVG.sol:RandomSVG",
        "label": "nonces",
        "offset": 0,
        "slot": "7",
        "type": "t_mapping(t_bytes32,t_uint256)"
      },
      {
        "astId": 274,
        "contract": "contracts/RandomSVG.sol:RandomSVG",
        "label": "_owner",
        "offset": 0,
        "slot": "8",
        "type": "t_address"
      },
      {
        "astId": 2047,
        "contract": "contracts/RandomSVG.sol:RandomSVG",
        "label": "tokenCounter",
        "offset": 0,
        "slot": "9",
        "type": "t_uint256"
      },
      {
        "astId": 2073,
        "contract": "contracts/RandomSVG.sol:RandomSVG",
        "label": "requestIdToSender",
        "offset": 0,
        "slot": "10",
        "type": "t_mapping(t_bytes32,t_address)"
      },
      {
        "astId": 2077,
        "contract": "contracts/RandomSVG.sol:RandomSVG",
        "label": "tokenIdToRandomNumber",
        "offset": 0,
        "slot": "11",
        "type": "t_mapping(t_uint256,t_uint256)"
      },
      {
        "astId": 2081,
        "contract": "contracts/RandomSVG.sol:RandomSVG",
        "label": "requestIdToTokenId",
        "offset": 0,
        "slot": "12",
        "type": "t_mapping(t_bytes32,t_uint256)"
      },
      {
        "astId": 2083,
        "contract": "contracts/RandomSVG.sol:RandomSVG",
        "label": "keyHash",
        "offset": 0,
        "slot": "13",
        "type": "t_bytes32"
      },
      {
        "astId": 2085,
        "contract": "contracts/RandomSVG.sol:RandomSVG",
        "label": "fee",
        "offset": 0,
        "slot": "14",
        "type": "t_uint256"
      },
      {
        "astId": 2087,
        "contract": "contracts/RandomSVG.sol:RandomSVG",
        "label": "maxNumberOfPaths",
        "offset": 0,
        "slot": "15",
        "type": "t_uint256"
      },
      {
        "astId": 2089,
        "contract": "contracts/RandomSVG.sol:RandomSVG",
        "label": "maxNumberOfPathCommands",
        "offset": 0,
        "slot": "16",
        "type": "t_uint256"
      },
      {
        "astId": 2091,
        "contract": "contracts/RandomSVG.sol:RandomSVG",
        "label": "size",
        "offset": 0,
        "slot": "17",
        "type": "t_uint256"
      },
      {
        "astId": 2094,
        "contract": "contracts/RandomSVG.sol:RandomSVG",
        "label": "pathCommands",
        "offset": 0,
        "slot": "18",
        "type": "t_array(t_string_storage)dyn_storage"
      },
      {
        "astId": 2097,
        "contract": "contracts/RandomSVG.sol:RandomSVG",
        "label": "colors",
        "offset": 0,
        "slot": "19",
        "type": "t_array(t_string_storage)dyn_storage"
      }
    ],
    "types": {
      "t_address": {
        "encoding": "inplace",
        "label": "address",
        "numberOfBytes": "20"
      },
      "t_array(t_string_storage)dyn_storage": {
        "base": "t_string_storage",
        "encoding": "dynamic_array",
        "label": "string[]",
        "numberOfBytes": "32"
      },
      "t_bool": {
        "encoding": "inplace",
        "label": "bool",
        "numberOfBytes": "1"
      },
      "t_bytes32": {
        "encoding": "inplace",
        "label": "bytes32",
        "numberOfBytes": "32"
      },
      "t_mapping(t_address,t_bool)": {
        "encoding": "mapping",
        "key": "t_address",
        "label": "mapping(address => bool)",
        "numberOfBytes": "32",
        "value": "t_bool"
      },
      "t_mapping(t_address,t_mapping(t_address,t_bool))": {
        "encoding": "mapping",
        "key": "t_address",
        "label": "mapping(address => mapping(address => bool))",
        "numberOfBytes": "32",
        "value": "t_mapping(t_address,t_bool)"
      },
      "t_mapping(t_address,t_uint256)": {
        "encoding": "mapping",
        "key": "t_address",
        "label": "mapping(address => uint256)",
        "numberOfBytes": "32",
        "value": "t_uint256"
      },
      "t_mapping(t_bytes32,t_address)": {
        "encoding": "mapping",
        "key": "t_bytes32",
        "label": "mapping(bytes32 => address)",
        "numberOfBytes": "32",
        "value": "t_address"
      },
      "t_mapping(t_bytes32,t_uint256)": {
        "encoding": "mapping",
        "key": "t_bytes32",
        "label": "mapping(bytes32 => uint256)",
        "numberOfBytes": "32",
        "value": "t_uint256"
      },
      "t_mapping(t_uint256,t_address)": {
        "encoding": "mapping",
        "key": "t_uint256",
        "label": "mapping(uint256 => address)",
        "numberOfBytes": "32",
        "value": "t_address"
      },
      "t_mapping(t_uint256,t_string_storage)": {
        "encoding": "mapping",
        "key": "t_uint256",
        "label": "mapping(uint256 => string)",
        "numberOfBytes": "32",
        "value": "t_string_storage"
      },
      "t_mapping(t_uint256,t_uint256)": {
        "encoding": "mapping",
        "key": "t_uint256",
        "label": "mapping(uint256 => uint256)",
        "numberOfBytes": "32",
        "value": "t_uint256"
      },
      "t_string_storage": {
        "encoding": "bytes",
        "label": "string",
        "numberOfBytes": "32"
      },
      "t_uint256": {
        "encoding": "inplace",
        "label": "uint256",
        "numberOfBytes": "32"
      }
    }
  }
}