{
  "address": "0x7d9AfAF0e30e7bD4D34Ed5Bf286Baf4581C358Bb",
  "abi": [
    {
      "inputs": [],
      "stateMutability": "nonpayable",
      "type": "constructor"
    },
    {
      "anonymous": false,
      "inputs": [
        {
          "indexed": true,
          "internalType": "address",
          "name": "owner",
          "type": "address"
        },
        {
          "indexed": true,
          "internalType": "address",
          "name": "approved",
          "type": "address"
        },
        {
          "indexed": true,
          "internalType": "uint256",
          "name": "tokenId",
          "type": "uint256"
        }
      ],
      "name": "Approval",
      "type": "event"
    },
    {
      "anonymous": false,
      "inputs": [
        {
          "indexed": true,
          "internalType": "address",
          "name": "owner",
          "type": "address"
        },
        {
          "indexed": true,
          "internalType": "address",
          "name": "operator",
          "type": "address"
        },
        {
          "indexed": false,
          "internalType": "bool",
          "name": "approved",
          "type": "bool"
        }
      ],
      "name": "ApprovalForAll",
      "type": "event"
    },
    {
      "anonymous": false,
      "inputs": [
        {
          "indexed": true,
          "internalType": "address",
          "name": "from",
          "type": "address"
        },
        {
          "indexed": true,
          "internalType": "address",
          "name": "to",
          "type": "address"
        },
        {
          "indexed": true,
          "internalType": "uint256",
          "name": "tokenId",
          "type": "uint256"
        }
      ],
      "name": "Transfer",
      "type": "event"
    },
    {
      "inputs": [
        {
          "internalType": "address",
          "name": "to",
          "type": "address"
        },
        {
          "internalType": "uint256",
          "name": "tokenId",
          "type": "uint256"
        }
      ],
      "name": "approve",
      "outputs": [],
      "stateMutability": "nonpayable",
      "type": "function"
    },
    {
      "inputs": [
        {
          "internalType": "address",
          "name": "owner",
          "type": "address"
        }
      ],
      "name": "balanceOf",
      "outputs": [
        {
          "internalType": "uint256",
          "name": "",
          "type": "uint256"
        }
      ],
      "stateMutability": "view",
      "type": "function"
    },
    {
      "inputs": [
        {
          "internalType": "string",
          "name": "_tokenURI",
          "type": "string"
        }
      ],
      "name": "createCollectible",
      "outputs": [
        {
          "internalType": "uint256",
          "name": "",
          "type": "uint256"
        }
      ],
      "stateMutability": "nonpayable",
      "type": "function"
    },
    {
      "inputs": [
        {
          "internalType": "uint256",
          "name": "tokenId",
          "type": "uint256"
        }
      ],
      "name": "getApproved",
      "outputs": [
        {
          "internalType": "address",
          "name": "",
          "type": "address"
        }
      ],
      "stateMutability": "view",
      "type": "function"
    },
    {
      "inputs": [
        {
          "internalType": "address",
          "name": "owner",
          "type": "address"
        },
        {
          "internalType": "address",
          "name": "operator",
          "type": "address"
        }
      ],
      "name": "isApprovedForAll",
      "outputs": [
        {
          "internalType": "bool",
          "name": "",
          "type": "bool"
        }
      ],
      "stateMutability": "view",
      "type": "function"
    },
    {
      "inputs": [],
      "name": "name",
      "outputs": [
        {
          "internalType": "string",
          "name": "",
          "type": "string"
        }
      ],
      "stateMutability": "view",
      "type": "function"
    },
    {
      "inputs": [
        {
          "internalType": "uint256",
          "name": "tokenId",
          "type": "uint256"
        }
      ],
      "name": "ownerOf",
      "outputs": [
        {
          "internalType": "address",
          "name": "",
          "type": "address"
        }
      ],
      "stateMutability": "view",
      "type": "function"
    },
    {
      "inputs": [
        {
          "internalType": "address",
          "name": "from",
          "type": "address"
        },
        {
          "internalType": "address",
          "name": "to",
          "type": "address"
        },
        {
          "internalType": "uint256",
          "name": "tokenId",
          "type": "uint256"
        }
      ],
      "name": "safeTransferFrom",
      "outputs": [],
      "stateMutability": "nonpayable",
      "type": "function"
    },
    {
      "inputs": [
        {
          "internalType": "address",
          "name": "from",
          "type": "address"
        },
        {
          "internalType": "address",
          "name": "to",
          "type": "address"
        },
        {
          "internalType": "uint256",
          "name": "tokenId",
          "type": "uint256"
        },
        {
          "internalType": "bytes",
          "name": "_data",
          "type": "bytes"
        }
      ],
      "name": "safeTransferFrom",
      "outputs": [],
      "stateMutability": "nonpayable",
      "type": "function"
    },
    {
      "inputs": [
        {
          "internalType": "address",
          "name": "operator",
          "type": "address"
        },
        {
          "internalType": "bool",
          "name": "approved",
          "type": "bool"
        }
      ],
      "name": "setApprovalForAll",
      "outputs": [],
      "stateMutability": "nonpayable",
      "type": "function"
    },
    {
      "inputs": [
        {
          "internalType": "bytes4",
          "name": "interfaceId",
          "type": "bytes4"
        }
      ],
      "name": "supportsInterface",
      "outputs": [
        {
          "internalType": "bool",
          "name": "",
          "type": "bool"
        }
      ],
      "stateMutability": "view",
      "type": "function"
    },
    {
      "inputs": [],
      "name": "symbol",
      "outputs": [
        {
          "internalType": "string",
          "name": "",
          "type": "string"
        }
      ],
      "stateMutability": "view",
      "type": "function"
    },
    {
      "inputs": [],
      "name": "tokenCounter",
      "outputs": [
        {
          "internalType": "uint256",
          "name": "",
          "type": "uint256"
        }
      ],
      "stateMutability": "view",
      "type": "function"
    },
    {
      "inputs": [
        {
          "internalType": "uint256",
          "name": "tokenId",
          "type": "uint256"
        }
      ],
      "name": "tokenURI",
      "outputs": [
        {
          "internalType": "string",
          "name": "",
          "type": "string"
        }
      ],
      "stateMutability": "view",
      "type": "function"
    },
    {
      "inputs": [
        {
          "internalType": "address",
          "name": "from",
          "type": "address"
        },
        {
          "internalType": "address",
          "name": "to",
          "type": "address"
        },
        {
          "internalType": "uint256",
          "name": "tokenId",
          "type": "uint256"
        }
      ],
      "name": "transferFrom",
      "outputs": [],
      "stateMutability": "nonpayable",
      "type": "function"
    }
  ],
  "transactionHash": "0xa27ce24bdd5f7e3e9b9fea2d950acd61a7277a44362e6541ea49caecf89f0e75",
  "args": [],
  "solcInputHash": "760ecbeacd22596d228d7e472d2e0cc0",
  "bytecode": "0x60806040523480156200001157600080fd5b506040518060400160405280600581526020017f446f6769650000000000000000000000000000000000000000000000000000008152506040518060400160405280600381526020017f444f470000000000000000000000000000000000000000000000000000000000815250816000908051906020019062000096929190620000c0565b508060019080519060200190620000af929190620000c0565b5050506000600681905550620001d5565b828054620000ce9062000170565b90600052602060002090601f016020900481019282620000f257600085556200013e565b82601f106200010d57805160ff19168380011785556200013e565b828001600101855582156200013e579182015b828111156200013d57825182559160200191906001019062000120565b5b5090506200014d919062000151565b5090565b5b808211156200016c57600081600090555060010162000152565b5090565b600060028204905060018216806200018957607f821691505b60208210811415620001a0576200019f620001a6565b5b50919050565b7f4e487b7100000000000000000000000000000000000000000000000000000000600052602260045260246000fd5b6127dd80620001e56000396000f3fe608060405234801561001057600080fd5b50600436106100f55760003560e01c80636352211e11610097578063b88d4fde11610066578063b88d4fde14610296578063c87b56dd146102b2578063d082e381146102e2578063e985e9c514610300576100f5565b80636352211e146101fc57806370a082311461022c57806395d89b411461025c578063a22cb4651461027a576100f5565b8063095ea7b3116100d3578063095ea7b31461017857806323b872dd1461019457806331f1f3c3146101b057806342842e0e146101e0576100f5565b806301ffc9a7146100fa57806306fdde031461012a578063081812fc14610148575b600080fd5b610114600480360381019061010f919061196d565b610330565b6040516101219190611d6e565b60405180910390f35b610132610412565b60405161013f9190611d89565b60405180910390f35b610162600480360381019061015d9190611a00565b6104a4565b60405161016f9190611d07565b60405180910390f35b610192600480360381019061018d9190611931565b610529565b005b6101ae60048036038101906101a9919061182b565b610641565b005b6101ca60048036038101906101c591906119bf565b6106a1565b6040516101d79190611f6b565b60405180910390f35b6101fa60048036038101906101f5919061182b565b6106df565b005b61021660048036038101906102119190611a00565b6106ff565b6040516102239190611d07565b60405180910390f35b610246600480360381019061024191906117c6565b6107b1565b6040516102539190611f6b565b60405180910390f35b610264610869565b6040516102719190611d89565b60405180910390f35b610294600480360381019061028f91906118f5565b6108fb565b005b6102b060048036038101906102ab919061187a565b610a7c565b005b6102cc60048036038101906102c79190611a00565b610ade565b6040516102d99190611d89565b60405180910390f35b6102ea610b85565b6040516102f79190611f6b565b60405180910390f35b61031a600480360381019061031591906117ef565b610b8b565b6040516103279190611d6e565b60405180910390f35b60007f80ac58cd000000000000000000000000000000000000000000000000000000007bffffffffffffffffffffffffffffffffffffffffffffffffffffffff1916827bffffffffffffffffffffffffffffffffffffffffffffffffffffffff191614806103fb57507f5b5e139f000000000000000000000000000000000000000000000000000000007bffffffffffffffffffffffffffffffffffffffffffffffffffffffff1916827bffffffffffffffffffffffffffffffffffffffffffffffffffffffff1916145b8061040b575061040a82610c1f565b5b9050919050565b606060008054610421906121c1565b80601f016020809104026020016040519081016040528092919081815260200182805461044d906121c1565b801561049a5780601f1061046f5761010080835404028352916020019161049a565b820191906000526020600020905b81548152906001019060200180831161047d57829003601f168201915b5050505050905090565b60006104af82610c89565b6104ee576040517f08c379a00000000000000000000000000000000000000000000000000000000081526004016104e590611ecb565b60405180910390fd5b6004600083815260200190815260200160002060009054906101000a900473ffffffffffffffffffffffffffffffffffffffff169050919050565b6000610534826106ff565b90508073ffffffffffffffffffffffffffffffffffffffff168373ffffffffffffffffffffffffffffffffffffffff1614156105a5576040517f08c379a000000000000000000000000000000000000000000000000000000000815260040161059c90611f2b565b60405180910390fd5b8073ffffffffffffffffffffffffffffffffffffffff166105c4610cf5565b73ffffffffffffffffffffffffffffffffffffffff1614806105f357506105f2816105ed610cf5565b610b8b565b5b610632576040517f08c379a000000000000000000000000000000000000000000000000000000000815260040161062990611e4b565b60405180910390fd5b61063c8383610cfd565b505050565b61065261064c610cf5565b82610db6565b610691576040517f08c379a000000000000000000000000000000000000000000000000000000000815260040161068890611f4b565b60405180910390fd5b61069c838383610e94565b505050565b6000806000905060065490506106b733826110f0565b6106c081610ade565b5060016006546106d09190612050565b60068190555080915050919050565b6106fa83838360405180602001604052806000815250610a7c565b505050565b6000806002600084815260200190815260200160002060009054906101000a900473ffffffffffffffffffffffffffffffffffffffff169050600073ffffffffffffffffffffffffffffffffffffffff168173ffffffffffffffffffffffffffffffffffffffff1614156107a8576040517f08c379a000000000000000000000000000000000000000000000000000000000815260040161079f90611e8b565b60405180910390fd5b80915050919050565b60008073ffffffffffffffffffffffffffffffffffffffff168273ffffffffffffffffffffffffffffffffffffffff161415610822576040517f08c379a000000000000000000000000000000000000000000000000000000000815260040161081990611e6b565b60405180910390fd5b600360008373ffffffffffffffffffffffffffffffffffffffff1673ffffffffffffffffffffffffffffffffffffffff168152602001908152602001600020549050919050565b606060018054610878906121c1565b80601f01602080910402602001604051908101604052809291908181526020018280546108a4906121c1565b80156108f15780601f106108c6576101008083540402835291602001916108f1565b820191906000526020600020905b8154815290600101906020018083116108d457829003601f168201915b5050505050905090565b610903610cf5565b73ffffffffffffffffffffffffffffffffffffffff168273ffffffffffffffffffffffffffffffffffffffff161415610971576040517f08c379a000000000000000000000000000000000000000000000000000000000815260040161096890611e0b565b60405180910390fd5b806005600061097e610cf5565b73ffffffffffffffffffffffffffffffffffffffff1673ffffffffffffffffffffffffffffffffffffffff16815260200190815260200160002060008473ffffffffffffffffffffffffffffffffffffffff1673ffffffffffffffffffffffffffffffffffffffff16815260200190815260200160002060006101000a81548160ff0219169083151502179055508173ffffffffffffffffffffffffffffffffffffffff16610a2b610cf5565b73ffffffffffffffffffffffffffffffffffffffff167f17307eab39ab6107e8899845ad3d59bd9653f200f220920489ca2b5937696c3183604051610a709190611d6e565b60405180910390a35050565b610a8d610a87610cf5565b83610db6565b610acc576040517f08c379a0000000000000000000000000000000000000000000000000000000008152600401610ac390611f4b565b60405180910390fd5b610ad8848484846112be565b50505050565b6060610ae982610c89565b610b28576040517f08c379a0000000000000000000000000000000000000000000000000000000008152600401610b1f90611f0b565b60405180910390fd5b6000610b3261131a565b90506000815111610b525760405180602001604052806000815250610b7d565b80610b5c84611331565b604051602001610b6d929190611ce3565b6040516020818303038152906040525b915050919050565b60065481565b6000600560008473ffffffffffffffffffffffffffffffffffffffff1673ffffffffffffffffffffffffffffffffffffffff16815260200190815260200160002060008373ffffffffffffffffffffffffffffffffffffffff1673ffffffffffffffffffffffffffffffffffffffff16815260200190815260200160002060009054906101000a900460ff16905092915050565b60007f01ffc9a7000000000000000000000000000000000000000000000000000000007bffffffffffffffffffffffffffffffffffffffffffffffffffffffff1916827bffffffffffffffffffffffffffffffffffffffffffffffffffffffff1916149050919050565b60008073ffffffffffffffffffffffffffffffffffffffff166002600084815260200190815260200160002060009054906101000a900473ffffffffffffffffffffffffffffffffffffffff1673ffffffffffffffffffffffffffffffffffffffff1614159050919050565b600033905090565b816004600083815260200190815260200160002060006101000a81548173ffffffffffffffffffffffffffffffffffffffff021916908373ffffffffffffffffffffffffffffffffffffffff160217905550808273ffffffffffffffffffffffffffffffffffffffff16610d70836106ff565b73ffffffffffffffffffffffffffffffffffffffff167f8c5be1e5ebec7d5bd14f71427d1e84f3dd0314c0f7b2291e5b200ac8c7c3b92560405160405180910390a45050565b6000610dc182610c89565b610e00576040517f08c379a0000000000000000000000000000000000000000000000000000000008152600401610df790611e2b565b60405180910390fd5b6000610e0b836106ff565b90508073ffffffffffffffffffffffffffffffffffffffff168473ffffffffffffffffffffffffffffffffffffffff161480610e7a57508373ffffffffffffffffffffffffffffffffffffffff16610e62846104a4565b73ffffffffffffffffffffffffffffffffffffffff16145b80610e8b5750610e8a8185610b8b565b5b91505092915050565b8273ffffffffffffffffffffffffffffffffffffffff16610eb4826106ff565b73ffffffffffffffffffffffffffffffffffffffff1614610f0a576040517f08c379a0000000000000000000000000000000000000000000000000000000008152600401610f0190611eeb565b60405180910390fd5b600073ffffffffffffffffffffffffffffffffffffffff168273ffffffffffffffffffffffffffffffffffffffff161415610f7a576040517f08c379a0000000000000000000000000000000000000000000000000000000008152600401610f7190611deb565b60405180910390fd5b610f858383836114de565b610f90600082610cfd565b6001600360008573ffffffffffffffffffffffffffffffffffffffff1673ffffffffffffffffffffffffffffffffffffffff1681526020019081526020016000206000828254610fe091906120d7565b925050819055506001600360008473ffffffffffffffffffffffffffffffffffffffff1673ffffffffffffffffffffffffffffffffffffffff16815260200190815260200160002060008282546110379190612050565b92505081905550816002600083815260200190815260200160002060006101000a81548173ffffffffffffffffffffffffffffffffffffffff021916908373ffffffffffffffffffffffffffffffffffffffff160217905550808273ffffffffffffffffffffffffffffffffffffffff168473ffffffffffffffffffffffffffffffffffffffff167fddf252ad1be2c89b69c2b068fc378daa952ba7f163c4a11628f55a4df523b3ef60405160405180910390a4505050565b600073ffffffffffffffffffffffffffffffffffffffff168273ffffffffffffffffffffffffffffffffffffffff161415611160576040517f08c379a000000000000000000000000000000000000000000000000000000000815260040161115790611eab565b60405180910390fd5b61116981610c89565b156111a9576040517f08c379a00000000000000000000000000000000000000000000000000000000081526004016111a090611dcb565b60405180910390fd5b6111b5600083836114de565b6001600360008473ffffffffffffffffffffffffffffffffffffffff1673ffffffffffffffffffffffffffffffffffffffff16815260200190815260200160002060008282546112059190612050565b92505081905550816002600083815260200190815260200160002060006101000a81548173ffffffffffffffffffffffffffffffffffffffff021916908373ffffffffffffffffffffffffffffffffffffffff160217905550808273ffffffffffffffffffffffffffffffffffffffff16600073ffffffffffffffffffffffffffffffffffffffff167fddf252ad1be2c89b69c2b068fc378daa952ba7f163c4a11628f55a4df523b3ef60405160405180910390a45050565b6112c9848484610e94565b6112d5848484846114e3565b611314576040517f08c379a000000000000000000000000000000000000000000000000000000000815260040161130b90611dab565b60405180910390fd5b50505050565b606060405180602001604052806000815250905090565b60606000821415611379576040518060400160405280600181526020017f300000000000000000000000000000000000000000000000000000000000000081525090506114d9565b600082905060005b600082146113ab57808061139490612224565b915050600a826113a491906120a6565b9150611381565b60008167ffffffffffffffff8111156113ed577f4e487b7100000000000000000000000000000000000000000000000000000000600052604160045260246000fd5b6040519080825280601f01601f19166020018201604052801561141f5781602001600182028036833780820191505090505b5090505b600085146114d25760018261143891906120d7565b9150600a85611447919061226d565b60306114539190612050565b60f81b81838151811061148f577f4e487b7100000000000000000000000000000000000000000000000000000000600052603260045260246000fd5b60200101907effffffffffffffffffffffffffffffffffffffffffffffffffffffffffffff1916908160001a905350600a856114cb91906120a6565b9450611423565b8093505050505b919050565b505050565b60006115048473ffffffffffffffffffffffffffffffffffffffff1661167a565b1561166d578373ffffffffffffffffffffffffffffffffffffffff1663150b7a0261152d610cf5565b8786866040518563ffffffff1660e01b815260040161154f9493929190611d22565b602060405180830381600087803b15801561156957600080fd5b505af192505050801561159a57506040513d601f19601f820116820180604052508101906115979190611996565b60015b61161d573d80600081146115ca576040519150601f19603f3d011682016040523d82523d6000602084013e6115cf565b606091505b50600081511415611615576040517f08c379a000000000000000000000000000000000000000000000000000000000815260040161160c90611dab565b60405180910390fd5b805181602001fd5b63150b7a0260e01b7bffffffffffffffffffffffffffffffffffffffffffffffffffffffff1916817bffffffffffffffffffffffffffffffffffffffffffffffffffffffff191614915050611672565b600190505b949350505050565b600080823b905060008111915050919050565b60006116a061169b84611fab565b611f86565b9050828152602081018484840111156116b857600080fd5b6116c384828561217f565b509392505050565b60006116de6116d984611fdc565b611f86565b9050828152602081018484840111156116f657600080fd5b61170184828561217f565b509392505050565b6000813590506117188161274b565b92915050565b60008135905061172d81612762565b92915050565b60008135905061174281612779565b92915050565b60008151905061175781612779565b92915050565b600082601f83011261176e57600080fd5b813561177e84826020860161168d565b91505092915050565b600082601f83011261179857600080fd5b81356117a88482602086016116cb565b91505092915050565b6000813590506117c081612790565b92915050565b6000602082840312156117d857600080fd5b60006117e684828501611709565b91505092915050565b6000806040838503121561180257600080fd5b600061181085828601611709565b925050602061182185828601611709565b9150509250929050565b60008060006060848603121561184057600080fd5b600061184e86828701611709565b935050602061185f86828701611709565b9250506040611870868287016117b1565b9150509250925092565b6000806000806080858703121561189057600080fd5b600061189e87828801611709565b94505060206118af87828801611709565b93505060406118c0878288016117b1565b925050606085013567ffffffffffffffff8111156118dd57600080fd5b6118e98782880161175d565b91505092959194509250565b6000806040838503121561190857600080fd5b600061191685828601611709565b92505060206119278582860161171e565b9150509250929050565b6000806040838503121561194457600080fd5b600061195285828601611709565b9250506020611963858286016117b1565b9150509250929050565b60006020828403121561197f57600080fd5b600061198d84828501611733565b91505092915050565b6000602082840312156119a857600080fd5b60006119b684828501611748565b91505092915050565b6000602082840312156119d157600080fd5b600082013567ffffffffffffffff8111156119eb57600080fd5b6119f784828501611787565b91505092915050565b600060208284031215611a1257600080fd5b6000611a20848285016117b1565b91505092915050565b611a328161210b565b82525050565b611a418161211d565b82525050565b6000611a528261200d565b611a5c8185612023565b9350611a6c81856020860161218e565b611a758161235a565b840191505092915050565b6000611a8b82612018565b611a958185612034565b9350611aa581856020860161218e565b611aae8161235a565b840191505092915050565b6000611ac482612018565b611ace8185612045565b9350611ade81856020860161218e565b80840191505092915050565b6000611af7603283612034565b9150611b028261236b565b604082019050919050565b6000611b1a601c83612034565b9150611b25826123ba565b602082019050919050565b6000611b3d602483612034565b9150611b48826123e3565b604082019050919050565b6000611b60601983612034565b9150611b6b82612432565b602082019050919050565b6000611b83602c83612034565b9150611b8e8261245b565b604082019050919050565b6000611ba6603883612034565b9150611bb1826124aa565b604082019050919050565b6000611bc9602a83612034565b9150611bd4826124f9565b604082019050919050565b6000611bec602983612034565b9150611bf782612548565b604082019050919050565b6000611c0f602083612034565b9150611c1a82612597565b602082019050919050565b6000611c32602c83612034565b9150611c3d826125c0565b604082019050919050565b6000611c55602983612034565b9150611c608261260f565b604082019050919050565b6000611c78602f83612034565b9150611c838261265e565b604082019050919050565b6000611c9b602183612034565b9150611ca6826126ad565b604082019050919050565b6000611cbe603183612034565b9150611cc9826126fc565b604082019050919050565b611cdd81612175565b82525050565b6000611cef8285611ab9565b9150611cfb8284611ab9565b91508190509392505050565b6000602082019050611d1c6000830184611a29565b92915050565b6000608082019050611d376000830187611a29565b611d446020830186611a29565b611d516040830185611cd4565b8181036060830152611d638184611a47565b905095945050505050565b6000602082019050611d836000830184611a38565b92915050565b60006020820190508181036000830152611da38184611a80565b905092915050565b60006020820190508181036000830152611dc481611aea565b9050919050565b60006020820190508181036000830152611de481611b0d565b9050919050565b60006020820190508181036000830152611e0481611b30565b9050919050565b60006020820190508181036000830152611e2481611b53565b9050919050565b60006020820190508181036000830152611e4481611b76565b9050919050565b60006020820190508181036000830152611e6481611b99565b9050919050565b60006020820190508181036000830152611e8481611bbc565b9050919050565b60006020820190508181036000830152611ea481611bdf565b9050919050565b60006020820190508181036000830152611ec481611c02565b9050919050565b60006020820190508181036000830152611ee481611c25565b9050919050565b60006020820190508181036000830152611f0481611c48565b9050919050565b60006020820190508181036000830152611f2481611c6b565b9050919050565b60006020820190508181036000830152611f4481611c8e565b9050919050565b60006020820190508181036000830152611f6481611cb1565b9050919050565b6000602082019050611f806000830184611cd4565b92915050565b6000611f90611fa1565b9050611f9c82826121f3565b919050565b6000604051905090565b600067ffffffffffffffff821115611fc657611fc561232b565b5b611fcf8261235a565b9050602081019050919050565b600067ffffffffffffffff821115611ff757611ff661232b565b5b6120008261235a565b9050602081019050919050565b600081519050919050565b600081519050919050565b600082825260208201905092915050565b600082825260208201905092915050565b600081905092915050565b600061205b82612175565b915061206683612175565b9250827fffffffffffffffffffffffffffffffffffffffffffffffffffffffffffffffff0382111561209b5761209a61229e565b5b828201905092915050565b60006120b182612175565b91506120bc83612175565b9250826120cc576120cb6122cd565b5b828204905092915050565b60006120e282612175565b91506120ed83612175565b925082821015612100576120ff61229e565b5b828203905092915050565b600061211682612155565b9050919050565b60008115159050919050565b60007fffffffff0000000000000000000000000000000000000000000000000000000082169050919050565b600073ffffffffffffffffffffffffffffffffffffffff82169050919050565b6000819050919050565b82818337600083830152505050565b60005b838110156121ac578082015181840152602081019050612191565b838111156121bb576000848401525b50505050565b600060028204905060018216806121d957607f821691505b602082108114156121ed576121ec6122fc565b5b50919050565b6121fc8261235a565b810181811067ffffffffffffffff8211171561221b5761221a61232b565b5b80604052505050565b600061222f82612175565b91507fffffffffffffffffffffffffffffffffffffffffffffffffffffffffffffffff8214156122625761226161229e565b5b600182019050919050565b600061227882612175565b915061228383612175565b925082612293576122926122cd565b5b828206905092915050565b7f4e487b7100000000000000000000000000000000000000000000000000000000600052601160045260246000fd5b7f4e487b7100000000000000000000000000000000000000000000000000000000600052601260045260246000fd5b7f4e487b7100000000000000000000000000000000000000000000000000000000600052602260045260246000fd5b7f4e487b7100000000000000000000000000000000000000000000000000000000600052604160045260246000fd5b6000601f19601f8301169050919050565b7f4552433732313a207472616e7366657220746f206e6f6e20455243373231526560008201527f63656976657220696d706c656d656e7465720000000000000000000000000000602082015250565b7f4552433732313a20746f6b656e20616c7265616479206d696e74656400000000600082015250565b7f4552433732313a207472616e7366657220746f20746865207a65726f2061646460008201527f7265737300000000000000000000000000000000000000000000000000000000602082015250565b7f4552433732313a20617070726f766520746f2063616c6c657200000000000000600082015250565b7f4552433732313a206f70657261746f7220717565727920666f72206e6f6e657860008201527f697374656e7420746f6b656e0000000000000000000000000000000000000000602082015250565b7f4552433732313a20617070726f76652063616c6c6572206973206e6f74206f7760008201527f6e6572206e6f7220617070726f76656420666f7220616c6c0000000000000000602082015250565b7f4552433732313a2062616c616e636520717565727920666f7220746865207a6560008201527f726f206164647265737300000000000000000000000000000000000000000000602082015250565b7f4552433732313a206f776e657220717565727920666f72206e6f6e657869737460008201527f656e7420746f6b656e0000000000000000000000000000000000000000000000602082015250565b7f4552433732313a206d696e7420746f20746865207a65726f2061646472657373600082015250565b7f4552433732313a20617070726f76656420717565727920666f72206e6f6e657860008201527f697374656e7420746f6b656e0000000000000000000000000000000000000000602082015250565b7f4552433732313a207472616e73666572206f6620746f6b656e2074686174206960008201527f73206e6f74206f776e0000000000000000000000000000000000000000000000602082015250565b7f4552433732314d657461646174613a2055524920717565727920666f72206e6f60008201527f6e6578697374656e7420746f6b656e0000000000000000000000000000000000602082015250565b7f4552433732313a20617070726f76616c20746f2063757272656e74206f776e6560008201527f7200000000000000000000000000000000000000000000000000000000000000602082015250565b7f4552433732313a207472616e736665722063616c6c6572206973206e6f74206f60008201527f776e6572206e6f7220617070726f766564000000000000000000000000000000602082015250565b6127548161210b565b811461275f57600080fd5b50565b61276b8161211d565b811461277657600080fd5b50565b61278281612129565b811461278d57600080fd5b50565b61279981612175565b81146127a457600080fd5b5056fea26469706673582212204f76e91c72874ea2e743cbea30ea593524c4e814238a13efa78058a88d7c23b564736f6c63430008020033",
  "devdoc": {
    "kind": "dev",
    "methods": {
      "approve(address,uint256)": {
        "details": "See {IERC721-approve}."
      },
      "balanceOf(address)": {
        "details": "See {IERC721-balanceOf}."
      },
      "getApproved(uint256)": {
        "details": "See {IERC721-getApproved}."
      },
      "isApprovedForAll(address,address)": {
        "details": "See {IERC721-isApprovedForAll}."
      },
      "name()": {
        "details": "See {IERC721Metadata-name}."
      },
      "ownerOf(uint256)": {
        "details": "See {IERC721-ownerOf}."
      },
      "safeTransferFrom(address,address,uint256)": {
        "details": "See {IERC721-safeTransferFrom}."
      },
      "safeTransferFrom(address,address,uint256,bytes)": {
        "details": "See {IERC721-safeTransferFrom}."
      },
      "setApprovalForAll(address,bool)": {
        "details": "See {IERC721-setApprovalForAll}."
      },
      "supportsInterface(bytes4)": {
        "details": "See {IERC165-supportsInterface}."
      },
      "symbol()": {
        "details": "See {IERC721Metadata-symbol}."
      },
      "tokenURI(uint256)": {
        "details": "See {IERC721Metadata-tokenURI}."
      },
      "transferFrom(address,address,uint256)": {
        "details": "See {IERC721-transferFrom}."
      }
    },
    "version": 1
  },
  "userdoc": {
    "kind": "user",
    "methods": {},
    "version": 1
  },
  "storageLayout": {
    "storage": [
      {
        "astId": 1044,
        "contract": "contracts/SimpleCollectible.sol:SimpleCollectible",
        "label": "_name",
        "offset": 0,
        "slot": "0",
        "type": "t_string_storage"
      },
      {
        "astId": 1046,
        "contract": "contracts/SimpleCollectible.sol:SimpleCollectible",
        "label": "_symbol",
        "offset": 0,
        "slot": "1",
        "type": "t_string_storage"
      },
      {
        "astId": 1050,
        "contract": "contracts/SimpleCollectible.sol:SimpleCollectible",
        "label": "_owners",
        "offset": 0,
        "slot": "2",
        "type": "t_mapping(t_uint256,t_address)"
      },
      {
        "astId": 1054,
        "contract": "contracts/SimpleCollectible.sol:SimpleCollectible",
        "label": "_balances",
        "offset": 0,
        "slot": "3",
        "type": "t_mapping(t_address,t_uint256)"
      },
      {
        "astId": 1058,
        "contract": "contracts/SimpleCollectible.sol:SimpleCollectible",
        "label": "_tokenApprovals",
        "offset": 0,
        "slot": "4",
        "type": "t_mapping(t_uint256,t_address)"
      },
      {
        "astId": 1064,
        "contract": "contracts/SimpleCollectible.sol:SimpleCollectible",
        "label": "_operatorApprovals",
        "offset": 0,
        "slot": "5",
        "type": "t_mapping(t_address,t_mapping(t_address,t_bool))"
      },
      {
        "astId": 4276,
        "contract": "contracts/SimpleCollectible.sol:SimpleCollectible",
        "label": "tokenCounter",
        "offset": 0,
        "slot": "6",
        "type": "t_uint256"
      }
    ],
    "types": {
      "t_address": {
        "encoding": "inplace",
        "label": "address",
        "numberOfBytes": "20"
      },
      "t_bool": {
        "encoding": "inplace",
        "label": "bool",
        "numberOfBytes": "1"
      },
      "t_mapping(t_address,t_bool)": {
        "encoding": "mapping",
        "key": "t_address",
        "label": "mapping(address => bool)",
        "numberOfBytes": "32",
        "value": "t_bool"
      },
      "t_mapping(t_address,t_mapping(t_address,t_bool))": {
        "encoding": "mapping",
        "key": "t_address",
        "label": "mapping(address => mapping(address => bool))",
        "numberOfBytes": "32",
        "value": "t_mapping(t_address,t_bool)"
      },
      "t_mapping(t_address,t_uint256)": {
        "encoding": "mapping",
        "key": "t_address",
        "label": "mapping(address => uint256)",
        "numberOfBytes": "32",
        "value": "t_uint256"
      },
      "t_mapping(t_uint256,t_address)": {
        "encoding": "mapping",
        "key": "t_uint256",
        "label": "mapping(uint256 => address)",
        "numberOfBytes": "32",
        "value": "t_address"
      },
      "t_string_storage": {
        "encoding": "bytes",
        "label": "string",
        "numberOfBytes": "32"
      },
      "t_uint256": {
        "encoding": "inplace",
        "label": "uint256",
        "numberOfBytes": "32"
      }
    }
  }
}