{
  "address": "0xf8810482d2eCB59f0935D7dEF0C81B19F5758218",
  "abi": [
    {
      "inputs": [],
      "stateMutability": "nonpayable",
      "type": "constructor"
    },
    {
      "inputs": [
        {
          "internalType": "address",
          "name": "account",
          "type": "address"
        }
      ],
      "name": "TestifContract",
      "outputs": [
        {
          "internalType": "uint256",
          "name": "",
          "type": "uint256"
        }
      ],
      "stateMutability": "nonpayable",
      "type": "function"
    },
    {
      "inputs": [
        {
          "internalType": "address",
          "name": "account",
          "type": "address"
        }
      ],
      "name": "addressToUint256",
      "outputs": [
        {
          "internalType": "uint256",
          "name": "",
          "type": "uint256"
        }
      ],
      "stateMutability": "pure",
      "type": "function"
    },
    {
      "inputs": [
        {
          "internalType": "bytes",
          "name": "source",
          "type": "bytes"
        }
      ],
      "name": "bytesToAddress",
      "outputs": [
        {
          "internalType": "address",
          "name": "",
          "type": "address"
        }
      ],
      "stateMutability": "pure",
      "type": "function"
    },
    {
      "inputs": [
        {
          "internalType": "uint256",
          "name": "n",
          "type": "uint256"
        }
      ],
      "name": "convertfromuinttobytes",
      "outputs": [
        {
          "internalType": "bytes32",
          "name": "",
          "type": "bytes32"
        }
      ],
      "stateMutability": "nonpayable",
      "type": "function"
    },
    {
      "inputs": [],
      "name": "factory",
      "outputs": [
        {
          "internalType": "address",
          "name": "",
          "type": "address"
        }
      ],
      "stateMutability": "view",
      "type": "function"
    },
    {
      "inputs": [
        {
          "internalType": "address",
          "name": "incaddress",
          "type": "address"
        },
        {
          "internalType": "uint256",
          "name": "_x",
          "type": "uint256"
        }
      ],
      "name": "incrementX",
      "outputs": [
        {
          "internalType": "uint256",
          "name": "",
          "type": "uint256"
        }
      ],
      "stateMutability": "nonpayable",
      "type": "function"
    },
    {
      "inputs": [
        {
          "internalType": "uint256",
          "name": "_x",
          "type": "uint256"
        }
      ],
      "name": "incrementX",
      "outputs": [
        {
          "internalType": "uint256",
          "name": "",
          "type": "uint256"
        }
      ],
      "stateMutability": "nonpayable",
      "type": "function"
    },
    {
      "inputs": [
        {
          "internalType": "uint256",
          "name": "_y",
          "type": "uint256"
        }
      ],
      "name": "incrementY",
      "outputs": [
        {
          "internalType": "uint256",
          "name": "",
          "type": "uint256"
        }
      ],
      "stateMutability": "nonpayable",
      "type": "function"
    },
    {
      "inputs": [
        {
          "internalType": "address",
          "name": "incaddress",
          "type": "address"
        },
        {
          "internalType": "uint256",
          "name": "_y",
          "type": "uint256"
        }
      ],
      "name": "incrementY",
      "outputs": [
        {
          "internalType": "uint256",
          "name": "",
          "type": "uint256"
        }
      ],
      "stateMutability": "nonpayable",
      "type": "function"
    },
    {
      "inputs": [
        {
          "internalType": "uint256",
          "name": "_z",
          "type": "uint256"
        }
      ],
      "name": "incrementZ",
      "outputs": [
        {
          "internalType": "uint256",
          "name": "",
          "type": "uint256"
        }
      ],
      "stateMutability": "nonpayable",
      "type": "function"
    },
    {
      "inputs": [
        {
          "internalType": "address",
          "name": "incaddress",
          "type": "address"
        },
        {
          "internalType": "uint256",
          "name": "_z",
          "type": "uint256"
        }
      ],
      "name": "incrementZ",
      "outputs": [
        {
          "internalType": "uint256",
          "name": "returnz",
          "type": "uint256"
        }
      ],
      "stateMutability": "nonpayable",
      "type": "function"
    },
    {
      "inputs": [],
      "name": "incrementaddress",
      "outputs": [
        {
          "internalType": "address",
          "name": "",
          "type": "address"
        }
      ],
      "stateMutability": "view",
      "type": "function"
    },
    {
      "inputs": [
        {
          "internalType": "address",
          "name": "account",
          "type": "address"
        }
      ],
      "name": "isContract",
      "outputs": [
        {
          "internalType": "bool",
          "name": "",
          "type": "bool"
        }
      ],
      "stateMutability": "nonpayable",
      "type": "function"
    },
    {
      "inputs": [
        {
          "internalType": "address",
          "name": "addr",
          "type": "address"
        }
      ],
      "name": "isHuman",
      "outputs": [
        {
          "internalType": "bool",
          "name": "",
          "type": "bool"
        }
      ],
      "stateMutability": "nonpayable",
      "type": "function"
    },
    {
      "inputs": [
        {
          "internalType": "address",
          "name": "a",
          "type": "address"
        }
      ],
      "name": "toBytes",
      "outputs": [
        {
          "internalType": "bytes",
          "name": "b",
          "type": "bytes"
        }
      ],
      "stateMutability": "pure",
      "type": "function"
    },
    {
      "inputs": [
        {
          "internalType": "uint256",
          "name": "num",
          "type": "uint256"
        }
      ],
      "name": "uint256ToAddress",
      "outputs": [
        {
          "internalType": "address",
          "name": "",
          "type": "address"
        }
      ],
      "stateMutability": "pure",
      "type": "function"
    },
    {
      "inputs": [],
      "name": "x",
      "outputs": [
        {
          "internalType": "uint256",
          "name": "",
          "type": "uint256"
        }
      ],
      "stateMutability": "view",
      "type": "function"
    },
    {
      "inputs": [],
      "name": "y",
      "outputs": [
        {
          "internalType": "uint256",
          "name": "",
          "type": "uint256"
        }
      ],
      "stateMutability": "view",
      "type": "function"
    },
    {
      "inputs": [],
      "name": "z",
      "outputs": [
        {
          "internalType": "uint256",
          "name": "",
          "type": "uint256"
        }
      ],
      "stateMutability": "view",
      "type": "function"
    }
  ],
  "transactionHash": "0x2a5cd2439e14ff0b30bc37ab31debc3dd00043ece38b704b1174b9824d7c4df7",
  "args": [],
  "solcInputHash": "4e3745a0aec44d37b5aa2bc71379feee",
  "bytecode": "0x608060405230600360006101000a81548173ffffffffffffffffffffffffffffffffffffffff021916908373ffffffffffffffffffffffffffffffffffffffff16021790555033600460006101000a81548173ffffffffffffffffffffffffffffffffffffffff021916908373ffffffffffffffffffffffffffffffffffffffff16021790555060405161009290610164565b604051809103906000f0801580156100ae573d6000803e3d6000fd5b50600860006101000a81548173ffffffffffffffffffffffffffffffffffffffff021916908373ffffffffffffffffffffffffffffffffffffffff160217905550600860009054906101000a900473ffffffffffffffffffffffffffffffffffffffff16600960006101000a81548173ffffffffffffffffffffffffffffffffffffffff021916908373ffffffffffffffffffffffffffffffffffffffff16021790555034801561015e57600080fd5b50610171565b6102da8061110883390190565b610f88806101806000396000f3fe608060405234801561001057600080fd5b50600436106101215760003560e01c8063a56dfe4a116100ad578063e1ec32e011610071578063e1ec32e01461037e578063e373f971146103ae578063f72c436f146103de578063fe0758961461040e578063fe1456701461043e57610121565b8063a56dfe4a146102c4578063ac120366146102e2578063c45a015514610312578063c5d7802e14610330578063cf86f30f1461034e57610121565b806342526e4e116100f457806342526e4e146101d4578063593b79fe14610204578063758fb955146102345780638bdfd024146102645780639600f33d1461029457610121565b80630c55699c146101265780631627905514610144578063210d2031146101745780632b2d2154146101a4575b600080fd5b61012e61045c565b60405161013b9190610d7d565b60405180910390f35b61015e60048036038101906101599190610b4c565b610462565b60405161016b9190610d25565b60405180910390f35b61018e60048036038101906101899190610bf2565b610491565b60405161019b9190610d7d565b60405180910390f35b6101be60048036038101906101b99190610b75565b6104a4565b6040516101cb9190610d7d565b60405180910390f35b6101ee60048036038101906101e99190610bb1565b610629565b6040516101fb9190610d0a565b60405180910390f35b61021e60048036038101906102199190610b4c565b61063c565b60405161022b9190610d5b565b60405180910390f35b61024e60048036038101906102499190610b4c565b610687565b60405161025b9190610d7d565b60405180910390f35b61027e60048036038101906102799190610b75565b6106b0565b60405161028b9190610d7d565b60405180910390f35b6102ae60048036038101906102a99190610bf2565b610825565b6040516102bb9190610d0a565b60405180910390f35b6102cc61086a565b6040516102d99190610d7d565b60405180910390f35b6102fc60048036038101906102f79190610b4c565b610870565b6040516103099190610d7d565b60405180910390f35b61031a61089f565b6040516103279190610d0a565b60405180910390f35b6103386108c5565b6040516103459190610d7d565b60405180910390f35b61036860048036038101906103639190610bf2565b6108cb565b6040516103759190610d40565b60405180910390f35b61039860048036038101906103939190610bf2565b6108d8565b6040516103a59190610d7d565b60405180910390f35b6103c860048036038101906103c39190610bf2565b6108eb565b6040516103d59190610d7d565b60405180910390f35b6103f860048036038101906103f39190610b4c565b6108fe565b6040516104059190610d25565b60405180910390f35b61042860048036038101906104239190610b75565b61091f565b6040516104359190610d7d565b60405180910390f35b610446610a94565b6040516104539190610d0a565b60405180910390f35b60075481565b6000806000833b905060008114156104825760019150819250505061048c565b6000915081925050505b919050565b6000816001819055506001549050919050565b600082600960006101000a81548173ffffffffffffffffffffffffffffffffffffffff021916908373ffffffffffffffffffffffffffffffffffffffff1602179055508160078190555060006007546040516024016105039190610d7d565b6040516020818303038152906040527fe373f971000000000000000000000000000000000000000000000000000000007bffffffffffffffffffffffffffffffffffffffffffffffffffffffff19166020820180517bffffffffffffffffffffffffffffffffffffffffffffffffffffffff83818316178352505050509050600080600960009054906101000a900473ffffffffffffffffffffffffffffffffffffffff1673ffffffffffffffffffffffffffffffffffffffff16836040516105cc9190610cd8565b600060405180830381855af49150503d8060008114610607576040519150601f19603f3d011682016040523d82523d6000602084013e61060c565b606091505b50915091508161061b57600080fd5b600754935050505092915050565b6000806014830151905080915050919050565b606060405173ffffffffffffffffffffffffffffffffffffffff8316925082741400000000000000000000000000000000000000001860148201526034810160405280915050919050565b600080600090508273ffffffffffffffffffffffffffffffffffffffff16905080915050919050565b60008160068190555082600960006101000a81548173ffffffffffffffffffffffffffffffffffffffff021916908373ffffffffffffffffffffffffffffffffffffffff160217905550600080600960009054906101000a900473ffffffffffffffffffffffffffffffffffffffff1673ffffffffffffffffffffffffffffffffffffffff166006546040516024016107499190610d7d565b6040516020818303038152906040527f210d2031000000000000000000000000000000000000000000000000000000007bffffffffffffffffffffffffffffffffffffffffffffffffffffffff19166020820180517bffffffffffffffffffffffffffffffffffffffffffffffffffffffff83818316178352505050506040516107d39190610cd8565b600060405180830381855af49150503d806000811461080e576040519150601f19603f3d011682016040523d82523d6000602084013e610813565b606091505b50915091506006549250505092915050565b60008060009050829050600080826040516020016108439190610cef565b604051602081830303815290604052905061085d81610629565b9150819350505050919050565b60055481565b6000806000833b905060008114156108905760019150809250505061089a565b6000915080925050505b919050565b600a60009054906101000a900473ffffffffffffffffffffffffffffffffffffffff1681565b60065481565b60008160001b9050919050565b6000816000819055506000549050919050565b6000816002819055506002549050919050565b600080823b905060008114610914576000610917565b60015b915050919050565b60008160058190555082600960006101000a81548173ffffffffffffffffffffffffffffffffffffffff021916908373ffffffffffffffffffffffffffffffffffffffff160217905550600080600960009054906101000a900473ffffffffffffffffffffffffffffffffffffffff1673ffffffffffffffffffffffffffffffffffffffff166005546040516024016109b89190610d7d565b6040516020818303038152906040527fe1ec32e0000000000000000000000000000000000000000000000000000000007bffffffffffffffffffffffffffffffffffffffffffffffffffffffff19166020820180517bffffffffffffffffffffffffffffffffffffffffffffffffffffffff8381831617835250505050604051610a429190610cd8565b600060405180830381855af49150503d8060008114610a7d576040519150601f19603f3d011682016040523d82523d6000602084013e610a82565b606091505b50915091506005549250505092915050565b600360009054906101000a900473ffffffffffffffffffffffffffffffffffffffff1681565b6000610acd610ac884610dbd565b610d98565b905082815260208101848484011115610ae557600080fd5b610af0848285610e67565b509392505050565b600081359050610b0781610f24565b92915050565b600082601f830112610b1e57600080fd5b8135610b2e848260208601610aba565b91505092915050565b600081359050610b4681610f3b565b92915050565b600060208284031215610b5e57600080fd5b6000610b6c84828501610af8565b91505092915050565b60008060408385031215610b8857600080fd5b6000610b9685828601610af8565b9250506020610ba785828601610b37565b9150509250929050565b600060208284031215610bc357600080fd5b600082013567ffffffffffffffff811115610bdd57600080fd5b610be984828501610b0d565b91505092915050565b600060208284031215610c0457600080fd5b6000610c1284828501610b37565b91505092915050565b610c2481610e15565b82525050565b610c3381610e27565b82525050565b610c4281610e33565b82525050565b6000610c5382610dee565b610c5d8185610df9565b9350610c6d818560208601610e76565b610c7681610f13565b840191505092915050565b6000610c8c82610dee565b610c968185610e0a565b9350610ca6818560208601610e76565b80840191505092915050565b610cbb81610e5d565b82525050565b610cd2610ccd82610e5d565b610eda565b82525050565b6000610ce48284610c81565b915081905092915050565b6000610cfb8284610cc1565b60208201915081905092915050565b6000602082019050610d1f6000830184610c1b565b92915050565b6000602082019050610d3a6000830184610c2a565b92915050565b6000602082019050610d556000830184610c39565b92915050565b60006020820190508181036000830152610d758184610c48565b905092915050565b6000602082019050610d926000830184610cb2565b92915050565b6000610da2610db3565b9050610dae8282610ea9565b919050565b6000604051905090565b600067ffffffffffffffff821115610dd857610dd7610ee4565b5b610de182610f13565b9050602081019050919050565b600081519050919050565b600082825260208201905092915050565b600081905092915050565b6000610e2082610e3d565b9050919050565b60008115159050919050565b6000819050919050565b600073ffffffffffffffffffffffffffffffffffffffff82169050919050565b6000819050919050565b82818337600083830152505050565b60005b83811015610e94578082015181840152602081019050610e79565b83811115610ea3576000848401525b50505050565b610eb282610f13565b810181811067ffffffffffffffff82111715610ed157610ed0610ee4565b5b80604052505050565b6000819050919050565b7f4e487b7100000000000000000000000000000000000000000000000000000000600052604160045260246000fd5b6000601f19601f8301169050919050565b610f2d81610e15565b8114610f3857600080fd5b50565b610f4481610e5d565b8114610f4f57600080fd5b5056fea2646970667358221220c2b6a5fc9aea9968bbf261607bdc37c8a8c63e2bb142715c8e3c77105cddbd2e64736f6c63430008020033608060405230600360006101000a81548173ffffffffffffffffffffffffffffffffffffffff021916908373ffffffffffffffffffffffffffffffffffffffff16021790555034801561005157600080fd5b50610279806100616000396000f3fe608060405234801561001057600080fd5b506004361061004c5760003560e01c8063210d203114610051578063e1ec32e014610081578063e373f971146100b1578063fe145670146100e1575b600080fd5b61006b60048036038101906100669190610173565b6100ff565b60405161007891906101d5565b60405180910390f35b61009b60048036038101906100969190610173565b610112565b6040516100a891906101d5565b60405180910390f35b6100cb60048036038101906100c69190610173565b610125565b6040516100d891906101d5565b60405180910390f35b6100e9610138565b6040516100f691906101ba565b60405180910390f35b6000816001819055506001549050919050565b6000816000819055506000549050919050565b6000816002819055506002549050919050565b600360009054906101000a900473ffffffffffffffffffffffffffffffffffffffff1681565b60008135905061016d8161022c565b92915050565b60006020828403121561018557600080fd5b60006101938482850161015e565b91505092915050565b6101a5816101f0565b82525050565b6101b481610222565b82525050565b60006020820190506101cf600083018461019c565b92915050565b60006020820190506101ea60008301846101ab565b92915050565b60006101fb82610202565b9050919050565b600073ffffffffffffffffffffffffffffffffffffffff82169050919050565b6000819050919050565b61023581610222565b811461024057600080fd5b5056fea264697066735822122062dfb388968d5e393b1374ab564138b5abf8ba9e3def91a5a73735708da046c764736f6c63430008020033",
  "devdoc": {
    "kind": "dev",
    "methods": {},
    "version": 1
  },
  "userdoc": {
    "kind": "user",
    "methods": {},
    "version": 1
  },
  "storageLayout": {
    "storage": [
      {
        "astId": 4390,
        "contract": "contracts/Challenge.sol:Challenge",
        "label": "y",
        "offset": 0,
        "slot": "0",
        "type": "t_uint256"
      },
      {
        "astId": 4392,
        "contract": "contracts/Challenge.sol:Challenge",
        "label": "z",
        "offset": 0,
        "slot": "1",
        "type": "t_uint256"
      },
      {
        "astId": 4394,
        "contract": "contracts/Challenge.sol:Challenge",
        "label": "x",
        "offset": 0,
        "slot": "2",
        "type": "t_uint256"
      },
      {
        "astId": 4400,
        "contract": "contracts/Challenge.sol:Challenge",
        "label": "incrementaddress",
        "offset": 0,
        "slot": "3",
        "type": "t_address"
      },
      {
        "astId": 4452,
        "contract": "contracts/Challenge.sol:Challenge",
        "label": "tokenowner",
        "offset": 0,
        "slot": "4",
        "type": "t_address"
      },
      {
        "astId": 4454,
        "contract": "contracts/Challenge.sol:Challenge",
        "label": "y",
        "offset": 0,
        "slot": "5",
        "type": "t_uint256"
      },
      {
        "astId": 4456,
        "contract": "contracts/Challenge.sol:Challenge",
        "label": "z",
        "offset": 0,
        "slot": "6",
        "type": "t_uint256"
      },
      {
        "astId": 4458,
        "contract": "contracts/Challenge.sol:Challenge",
        "label": "x",
        "offset": 0,
        "slot": "7",
        "type": "t_uint256"
      },
      {
        "astId": 4469,
        "contract": "contracts/Challenge.sol:Challenge",
        "label": "_inc",
        "offset": 0,
        "slot": "8",
        "type": "t_contract(Incrementor)4446"
      },
      {
        "astId": 4475,
        "contract": "contracts/Challenge.sol:Challenge",
        "label": "Incrementoraddress",
        "offset": 0,
        "slot": "9",
        "type": "t_address"
      },
      {
        "astId": 4477,
        "contract": "contracts/Challenge.sol:Challenge",
        "label": "factory",
        "offset": 0,
        "slot": "10",
        "type": "t_address"
      }
    ],
    "types": {
      "t_address": {
        "encoding": "inplace",
        "label": "address",
        "numberOfBytes": "20"
      },
      "t_contract(Incrementor)4446": {
        "encoding": "inplace",
        "label": "contract Incrementor",
        "numberOfBytes": "20"
      },
      "t_uint256": {
        "encoding": "inplace",
        "label": "uint256",
        "numberOfBytes": "32"
      }
    }
  }
}